:100000000C9404080C9431080C9431080C943108B9
:100010000C9431080C9431080C9431080C9431087C
:100020000C9431080C9431080C9431080C9431086C
:100030000C94E0320C9431080C9431080C94310883
:100040000C9431080C946D220C9431080C943108F6
:100050000C9431080C9431080C9431080C9431083C
:100060000C9431080C94B7320C948D320C943108F6
:100070000C9431080C9431080C9431080C9431081C
:100080000C9431080C9431080C9431080C9431080C
:100090000C9431080C9431080C9431080C943108FC
:1000A0000C9431080C9431080C9431080C943108EC
:1000B0000C9431080C9431080C9431080C943108DC
:1000C0000C9431080C9431080C9431080C943108CC
:1000D0000C9431080C9431080C9431080C943108BC
:1000E0000C9431080C94782A0C948D110C94F11115
:1000F0000C940B2C0C946B210C94E82D0C94F9129D
:100100000C947F2B0C941C1F0C949C250C94950F25
:100110000C94431B0C9440280C946B0F0C94CC2033
:100120000C9493210C948D2C0C94D3110C94AE0E42
:100130000C94FD0F0C9445180C9408100C94ED17BA
:100140000C943A130C94A50D0C94FE130C94A80D6A
:100150000C94D4110C944F1B0C9410110C94E921A5
:100160000C9432180C9481320C948D100C94BE17A0
:100170000C94C42F0C94A62F0C9410210C942925B8
:100180000C94A42F0C94420F0C9460130C94132421
:100190000C94EF1C0C94732A0C94B90D0C94921EC1
:1001A0000C945D250C94362A0C942C260C94151E68
:1001B0000C9461290C94F3250C947C200C94441429
:1001C0000C94BD1F0C94FB280C949F180C945D2874
:1001D0000C94511C0C949B1B0C945E260C94E923EC
:1001E0000C946F250C945B0E0C941B220C9412192A
:1001F0000C940F280C94572D0C9430190C94192042
:100200000C940C2A0C94521B0C94F8230C94731528
:100210000C945E240C940B1D0C940E130C94E62489
:100220000C94271D0C94762D0C94E80E0C947D1CD8
:100230000C9496100C9446110C94AC2C0C94CC2875
:100240000C94030F0C94DE2E0C947A190C94581312
:100250000C94841F0C94232904000400000407005C
:100260000400020000040000000000000004000080
:100270000000040404040004070404000404000053
:100280000000000407070400000400020204040048
:100290000404000404040400000404040002030035
:1002A0000002040000020200040000040004040430
:1002B000040004000004000400000000000000002E
:1002C00001020102B602521B02010001890F45180A
:1002D00003010001B5025D25040400045E0FE9215D
:1002E00005020002620F7D1C060001000000431B96
:1002F00007020002B602732A08020002620F841F7E
:1003000009010001B50229250A030003B202DE2E0D
:100310000B020002B0026F250C020002B0023A1379
:100320000D0001000000ED170E080008A8029C2532
:100330000F060006A202101110020002620FCC2864
:1003400011020101840FF912120300039F028D10A4
:10035000130400049B027F2B14010001B5025E26EA
:100360001505000596021920160300039302F325D4
:1003700017040003640F6B0F180500058E02301977
:1003800019010001B50223291A030002750F572D28
:100390001B080008860244141C020002B002FB285D
:1003A0001D0500038302B90D1E020002620F8D2C91
:1003B0001F030002750FEF1C200400047E0F511C68
:1003C00021040004710F2C26220300039302420F24
:1003D00023030002750F731524030002750FA80D87
:1003E0002500010000008132260600067D02762DE0
:1003F0002700010000004F1B28010001B502612900
:10040000290400045E0F60132A0300037A021B22F2
:100410002B000100000032182C04000377021C1F7F
:100420002D0500057202782A2E020002B002121970
:100430002F030103B202D41130030003770F96108B
:1004400031030002750F0B1D320600067D024611B6
:1004500033040003670F0C2A34020102B0020E13AA
:10046000350500056D02030F36020002B002FE13CF
:1004700037010001B502AC2C38010001B502581358
:10048000390800086502271D3A0500056002362A72
:100490003B030002750F950F3C0400035D025B0EE9
:1004A0003D020002620FE6243E030002750FE82DB4
:1004B0003F0001000000BE1740020002620F40280A
:1004C000410500055802BD1F42020002620F9F183D
:1004D00043030003B2027A19440400045E0FAE0E17
:1004E000450001000000D311460005000000282946
:1004F0002A2B2C2D2E2F505152535455565778DA03
:100500009D19D96E1B47F2573A048CDD2C146138C3
:100510003CA5C00F122527DA58B6625AF1028BC5E6
:10052000A035D3241B9A2B73E8D8C0FFBE75F4C541
:1005300021E3006BC060F774755575DD55FA63F4FF
:10054000D0EB3C4B9E54D3EAAA6C47E7A36D9A9E2E
:100550008BBFFFB45A7D2F66A7D3D3483CE8B2EFD8
:1005600074DEE2D70FF7E2D26CBF17F1693C3F8D22
:10057000A3F13C1AC7B3D1C928AD8A42961920F914
:100580006324F3BC4A65A7924A67AD48ABBEECDE74
:10059000BE4947E771740224BB0E6825327D147092
:1005A0000CDF038065709E65F6BCAE5AFAD1E5DBC0
:1005B00037BDA8FB3C4FFA9AE027B1BFF07BAF9A5A
:1005C000578712187844E846B55DD2E9F4B1E55D85
:1005D000D7C8B22D749758A24297F07EC3DF18DEB9
:1005E000912BD924EDAEEFB2EAB91C9DCFF169E5AC
:1005F000466F81A3977C329D59126DAD135E021F29
:1006000091872A655E6D135D3AEE89EDD1F96CEA4A
:10061000600CCB1682B78917C3CC41D237D5ECE337
:10062000DA13C13476C099DEEA4EE649D577830BFA
:100630004F32EF15EE33B5917DDE25EE43215F920B
:10064000AC6F640706406CC69E4D05EAECAA7A0FB3
:1006500057BA473CF6C477D974BA584616B86913E6
:10066000435BD9453675AB995BCDDD6AE1562A9778
:10067000AF4E67208D8523A2E3D4128025C891B5A3
:100680000AA686BF6032A06EBE345FBA4BA5AA6AC6
:10069000FDA2F2814C32D9C9A4D5FF85ABBB1EECBB
:1006A000BC4B501681A9B40A3EE932E4C423AD9F85
:1006B0008B23724E5FC17C3C0E23E55D3F943B7CF7
:1006C0003910FCD86B1D4C6B683DE3383C75F679EE
:1006D000688CC21E2545BB7DFBE61FE090F164EFF0
:1006E000EEB3EE76C07A925A038487792B6FBBC53E
:1006F00059ECD4983A35B669FEE8D63A73CBD7327E
:100700004DF63526D2224B864A9C2C030AAAAEBD52
:100710004DE33631B695E9C62ED92D09D843F57982
:10072000AB02A4532FB26EA79AA20277A9737544A5
:1007300028E171D2BDD68ADDD6DB7A57A4BD6C9C88
:100740003E9B97E4C0D744E73EA2B574BA506C6AAA
:1007500001170DCAC38915E49EA9871E4CB0AA01D2
:10076000EECC6E01CB96EC8FF5335ED8834649888C
:100770007A4DA61AA487F6CC76175B80E74677EA0F
:1007800000020D8D05029854A19AAD2AD3D7049D7D
:10079000179800B2C693935D55A88310D9CAA20ECC
:1007A000ADD6EC5D80DC0FA1C0BB8F1EFC5E27E4E4
:1007B000466FB7AAC157B468D42081F1D413A700FB
:1007C0000D4CC94E3909016F1B0D1113DC30611935
:1007D0008AB44939109D8CB6E081C426BC6C62B6DF
:1007E0000404C234FBBE463D0021D89B1094B440A3
:1007F000310123740116D72CEAE9D9000CB560C188
:10080000BC4626900830C01455A637AF09A8DBE1D6
:100810006A14799530790258C053E368677C8DD5A6
:10082000B80F8FDF925CB137CF230634EA3C200F3C
:10083000EEA8335576405C549B0D5021BF720902DF
:10084000D8B3518D9EE1E4398D8293BECEBCAC39D4
:100850008BEEFA80CC0CD0B05206A9ED78F604B23B
:10086000D1E00269B30FE2C8CC010CD3E0FF696E9E
:100870008537371334FD0E52F9162EEE54FA18242C
:10088000CF78617918244FC7415D814B0FE907513B
:10089000C5DE3F1653FEA4B008D8DCE3129D7742B4
:1008A000F87A752C3F3B74559867E60B7B6590662C
:1008B0001CB81302B0BBB4C018235D7AC497735838
:1008C000B076B3A30C09BF1A3409964A190E8C6D81
:1008D0006196749FFD6D480FA40A5410267CC3A036
:1008E000B8189D2F0E60E80194151DCABD1409ECBF
:1008F000CFF952A95E0C0790049C4BE88610CFA755
:100900000C64C5F117E916DE87EC629EF4CE111A6D
:10091000FE993DEDB08608F3852929C0F155505A5E
:10092000009B637FA5AD36DDB36C5478B7D06D65A1
:10093000B34351B5FA58DA3C403A8B182915A51B38
:100940006FA941240087E28CFCADA8368FF7A18EF9
:1009500007B51825CDB937C1D009014163F5E1BC10
:10096000379E79008AD868941CD3850BF141C00763
:1009700031034A9339F7444D71CD853D8E4CA042E9
:10098000731B658851FB886103CAB187EBC28CACCD
:10099000EAAA31E980FD8FF64EF9EAA5D6A09220A9
:1009A000F74C260ED3E01501D01CC8719C3CE69E86
:1009B000DEB4E7F3AF36CB63877371B54A6E2FFEB3
:1009C000852111ABABCBFB757277F3618DF5157497
:1009D0005177979393BBCB18FE8F47C161F74C8734
:1009E00057D1C9DD151EACDE7F5CFD92BCFB74FDEA
:1009F0002B4A32A27F27A3DBD53D40C9AE505B19FD
:100A0000CFE61100DE7DB9656A3106D84FD7ABEB72
:100A10009BDFAE932F371FAE3E7E415F8EF1E3FA30
:100A2000FA137C642E54A3658EB4AE81D635D2827F
:100A3000D39B8BF7C9E5C5FD15A26152EBCF179F7C
:100A4000D7C9FAFE76FD2B9CACAFF104DFA9CA1E14
:100A50008A082A4DA99F33B5362EE90D11C0804D65
:100A6000E3FEEE221A9DFF3B3A59FE07D8BCC4F5BF
:100A700092D72B5C837DD0E60A37D059D0E61A375F
:100A8000D0B9D1E61D6EA6E6FE4FB431087EC6CDC4
:100A9000CC20F8276E16E6CE2F44C6DC794F1BBC5F
:100AA000F3959DC9304A9A404631456934A606AA55
:100AB000AE4467467D82D4BCE124C2CE7191A3B519
:100AC000BE0A5B91645C56AC6429CAAA1360B60284
:100AD0005D5F4014E2D023C8FAC4F34EC39AADA8B8
:100AE0001535F80150E26ED7DEED5B0406A18EC528
:100AF000A66A0428F447BBD72D9E66F49D3E993222
:100B000005AEFEADC3880DE5F61618821A567608B6
:100B10002D0D9B32EDF49362B735C02D82A2F1B258
:100B20001FF1570AEE841A3855A5B0F5B7BB0FE68A
:100B3000B3E2EE5DD4B201E311AA69AA86E2B93D3F
:100B40006814E498B6A316FD9D84F766A2AB04F979
:100B50003C3665E4AA5C90DF94E0353A13B6C9F5FB
:100B60003D3727222EBB2D94191B50CFEBBF011808
:100B7000B2220B05598C1B187B58544FCA7223B0F4
:100B80007DE322D31EBB66CFB5775C011F9C9BE241
:100B9000C8D1C706C5028100053609DC76D9AFD8B1
:100BA00095D908804546F01D435A5F7B965B8E774A
:100BB0001662AF904877BA36D8716C702B5FD00C44
:100BC00097565E5CFDDD421F2BB74A401D0F49C39F
:100BD000EA030F748BC6D242D593F539F61170191A
:100BE00073A730E18BEC5A3D291434CE33FEFCC29E
:100BF0004E3619D9B281C678798BD2A56A42C0AA7D
:100C0000D9E4D53377A61FC088A5E0E7A0F790FB0D
:100C100063511E1E8059F30126B6F0409735676D6B
:100C20004EA4745422A7FE734C61CE1977DD545B39
:100C3000106601AC4B7CDB06D2237009C256E897E4
:100C400058F47C52E651688BE8384006450D6A40FE
:100C500043C55278ED000EA4239E759E43D64801ED
:100C6000DF5E33CEC591BFE924F48D1B38875A83EC
:100C700093B10E890184D0455FD86FD6F641966B4B
:100C8000DBBC530F01C8C82D29C4B8B11322347E70
:100C9000DA5595D8487A1DBF0C47349F43933A12D2
:100CA000CECE06202855C0455308AEE63E93C81068
:100CB00039E4D45651B77A5FB67D8D7955B15B531F
:100CC0002CC5A6F28BECD25D566D59D0DF71EF408A
:100CD000633EA8BFFBF21110634CE05E36F8DEFA0B
:100CE000033F62E080549539C4B02738960FB90DA0
:100CF0004DEEFDDC49095326709938E8C8CEC5474A
:100D0000088E90AA1E30B36FB0296FBFE3DE8DE668
:100D10008E2E4E9A6964C60D4C8B7D550911806DDF
:100D2000268563B22857C950E820C1E4B241616208
:100D3000857CA4464085B179E344C58453761E2C56
:100D40004021F51C4C1D30F740229F8C97B319644D
:100D5000A713BB99534BC79BF98CB40F9BF97C012C
:100D6000EBC9D7AF54A0D7101C148F574DF315966D
:100D7000792D46C4325583166F89EA38D6ABF956B9
:100D8000C2F43AB68EE23A3CC4F6D093F3D1AD8DBC
:100D9000DE54F89BEB60868A05F712F4E37ABEBD59
:100DA000269F311EEB5C96C1F476EF860C1A3A4111
:100DB00027E6353844A2FEC4D78B0B377D81DC682B
:100DC000C603F43E1A23E0376B5454A643540BD9A0
:100DD0005E9055529BF82DA6CD0DB3483CF5B3B1AE
:100DE0001FDDB4E05A6E12B358FAC1C71EE25D05AA
:100DF000BDE2F6904438578197467E929058E5FBC5
:100E0000F295F74628333F2C0840DDD4808DE1145D
:100E10004111A997871856464624E170C1BCCA1AE9
:100E2000599FA63460C5C90D200352E11C6B81FD9A
:100E30009F8F6DB6DF3F4E25DE6F7DFEEA91132A50
:100E4000E49A8E2AAB45C4655DEB15D3F685F96946
:100E50007F67054C7C3333E874781402E5E1E26C7B
:100E6000E0A3FBCF3D6AB83DC750D6920F1A47F8B2
:100E7000C7C687783F0B3B1A6F09A974EDD5D1E936
:100E80005960E44BEA52A884DBE9ED8E2CD17BC09B
:100E9000140284F91B0ED4FC4FD1E9383A8D7E1828
:100EA000CFA73F6CE5586E16CBF461F4F57FF79C45
:100EB000AFF2B409000020002300260029002C0016
:100EC0002F003200000100000301060109010F4755
:100ED00000440045008001354800440045002001E1
:100EE0000D88008000810080000E8A008000810053
:100EF00020000F8C008000810008000CB300B000BF
:100F0000B10080033EB400B000B10020032398007C
:100F1000900091008000249A00900091002000250C
:100F20009C009000910008003BA800A000A1008058
:100F3000003CAA00A000A10020003DAC00A000A140
:100F40000008005B28012001210180005C2A0120AB
:100F500001210120005D2C01200121010800040075
:100F6000000004040404070402070400000204044F
:100F70000204000004040704000204040400040442
:100F80000004040107040004020000000000000047
:100F9000060002025B17045E0F5A0A02620F5940F4
:100FA00002750F584003640F574003670F561C0724
:100FB0006A0F554002750F541404710F53400275A7
:100FC0000F521003770F5111047A0F5011047E0F46
:100FD0004F0D02820F4E0B01890F4D4001840F4CC3
:100FE0001204850F4B0B01890F4A10028A0F491515
:100FF000038C0F0040028F0F480E02910F4709012A
:10100000930F46060000000011241FBECFEFD1E26F
:10101000DEBFCDBF00E00CBF14BE0FB6F894A8959C
:1010200080916000886180936000109260000FBE24
:1010300012E0A0E0B2E0EAE3F7E600E00BBF02C096
:1010400007900D92AA32B107D9F723E0AAE2B2E0E5
:1010500001C01D92A539B207E1F70E949E230C94AE
:101060009B330C940000CF93DF93CDB7DEB7659729
:101070000FB6F894DEBF0FBECDBF0E948B236B016D
:101080007C0180912602882309F4E0C30E948B230F
:10109000C61AD70AE80AF90AF8948091260288232A
:1010A00051F08FEF8093260278940000F89480919D
:1010B00026028111F9CF78940E948B23A701960113
:1010C000260F371F481F591F288B398B4A8B5B8B84
:1010D00081E08093260280915302882309F440C066
:1010E000109253028FEF89838E010F5F1F4F6DE5C2
:1010F00075E2C8010E947A267C01892B89F1D7010B
:1011000056968C9182FFF3CF0E948B23F894F701BF
:1011100037892689422F4B7F468B78949F938F93F4
:101120007F936F931F923F9321701F922F9389811A
:101130001F928F9326EC3FE03F932F930E94D91587
:101140008DB79EB70C960FB6F8949EBF0FBE8DBF9D
:101150006DE575E2C8010E947A267C01892B79F63B
:1011600080915402882311F1109254028FEF8983E9
:101170008E010F5F1F4F6EEF73E1C8010E947A2648
:10118000FC01892B99F0958D868D9813F4CFF894F6
:10119000858D968D891709F4ACC378946EEF73E151
:1011A000C8010E947A26FC01892B69F780913702D9
:1011B000882309F454C0109237028FEF8B875FE0C9
:1011C000B52E62E47FE0CE010B960E947A261C01C8
:1011D000892B09F444C0D10157968C91579780FF11
:1011E000F0CFF894F101448055806680778087893C
:1011F0008E7F878B789456968C91813009F4D2C279
:1012000008F4AAC2823009F467C28330D1F6AB84F5
:1012100019861A869E01275F3F4F42E061E0F10187
:10122000848995890E94941489849A8498248924B5
:101230009824740100E010E0B101605F7F4FC12C81
:10124000A3019201C1010C960E94A50F82FEB9CFA5
:10125000809127028111B5CF8CE10E947A32809172
:101260005802882399F1109258028FEF8D8392E0F3
:10127000D92E2DE2E22E38E0F32E6DE87CE2CE018D
:1012800005960E947A268C01892B01F1D80152968D
:101290008C9182FFF2CF80FF14C0C8010E94C72F3B
:1012A000F801D28AE982FA829E012F5F3F4F42E025
:1012B00060E0848595850E949414C8010E94072EE1
:1012C000DCCF6D81C8010E94262ED7CF80914E02BF
:1012D000882301F110924E028FEF89838E010F5FF8
:1012E0001F4F6DE77CE1C8010E947A26009791F0BC
:1012F000DC0158962C912F3FA1F7F894FC0126852C
:10130000211184C278946DE77CE1C8010E947A269D
:10131000009771F780914F02882309F43FC0109223
:101320004F028FEF89838E010F5F1F4F6DEB7FE1BF
:10133000C8010E947A26009789F1DC011E962C9143
:101340001E9723FFF3CFF894FC012685277F26877D
:1013500078949C01265E3F4F3F932F9350968C913B
:101360008695869586951F928F9389811F928F937C
:10137000EEE9FFE0FF93EF930E94D9154DB75EB7FA
:10138000485F5F4F0FB6F8945EBF0FBE4DBF6DEB69
:101390007FE1C8010E947A26009779F68091500279
:1013A000882309F44AC0109250028FEF89838E017E
:1013B0000F5F1F4F84E9E82E8FE0F82E6BE172E299
:1013C000C8010E947A26FC01892BB9F1848D80FF27
:1013D000F5CFF894948125813681478154896589B8
:1013E0007689A789B08DD18CC28CB38C848D8E7F89
:1013F000848F7894BF92CF92DF92BF93AF937F9305
:101400006F935F934F933F932F939F9389811F9285
:101410008F93FF92EF920E94D9158DB79EB7409699
:101420000FB6F8949EBF0FBE8DBF6BE172E2C8018C
:101430000E947A26FC01892B49F6A89580917102B9
:10144000882329F080E4809360001092710210914B
:101450003203112309F46DC000912A0200FD12C06D
:10146000153008F466C0D0907202FD2C8BEF8D0D04
:101470008C3308F412C2EEE7FE1609F45CC2016078
:1014800000932A02412F50E06EE770E082E792E07D
:101490000E946C33009739F00E7F00932A02825726
:1014A000924011E0180F01FD0CC0902F92609093B4
:1014B0002A0289EE94E09F938F930E94D9150F9092
:1014C0000F90D12ECC24CA9480E00D2D10E018C0CE
:1014D00090E04E2D50E0481B590BB801680F791F62
:1014E0006E587D4F8E589D4F0E9482331092260277
:1014F0008E2D9FB7F89420913203F21661F09FBFB2
:10150000F0903203EF2CED1819F79FB7F894209163
:101510003203F212F4CFE09232039FBFF1E0CF1218
:1015200008C089EE94E09F938F930E94D9150F9085
:101530000F900E948B236B017C01288939894A898D
:101540005B89621B730B840B950B80903302909028
:101550003402A0903502B09036023FEF831A930A0E
:10156000A30AB30A8092330290923402A092350209
:10157000B092360240902F025090300260903102BB
:1015800070903202460E571E681E791E40922F023E
:1015900050923002609231027092320261157105F0
:1015A00041E08407910508F056C19B01AC010E94FF
:1015B000EB32DC01CB0181509F4FAF4FBF4F892FE2
:1015C0009A2FAB2FBB2740912B0250912C02609198
:1015D0002D0270912E02840F951FA61FB71F84172E
:1015E0009507A607B70718F48FEF9FEFDC018093EC
:1015F0002B0290932C02A0932D02B0932E024091C7
:101600004A0250914B0260914C0270914D025C5421
:101610006B437B4F2F2DC416D506E606270B27FDFF
:1016200030CDBF93AF939F938F937F926F925F92D2
:101630004F92BF92AF929F928F928EEE9FE09F93B8
:101640008F930E94D9158DB79EB70E960FB6F8945A
:101650009EBF0FBE8DBF80914A0290914B02A09118
:101660004C02B0914D02C816D906EA06FB0698F462
:101670008091460290914702A0914802B0914902A0
:101680000196A11DB11D8093460290934702A0933D
:101690004802B0934902C0924A02D0924B02E092B3
:1016A0004C02F0924D0210922B0210922C021092DA
:1016B0002D0210922E0210922F02109230021092E0
:1016C00031021092320210923302109234021092C0
:1016D000350210923602D5CCAB8481E089831A8220
:1016E0001B821C829E012F5F3F4F43E061E0848993
:1016F00095890E94941469817A818B819C810E94D2
:10170000FB32272F382F492F55272C873D874E87AF
:101710005F8737E039831A829E012F5F3F4F42E097
:1017200061E0D10154968D919C9155970E9494143B
:10173000EC84FD840E851F8500271127B101605FB1
:101740007F4FCA80A3019201C1010C960E94A50F90
:10175000BC85B0FF36CD7CCDAB841D821E821F823E
:1017600018869E012B5F3F4F44E061E0F1018489C0
:1017700095890E9494146D817E818F8198850E9445
:10178000FB32D62EF72EB101605F7F4FC12CED2CBE
:101790008C01A3019201C1010C960E94A50FD2FEFB
:1017A00010CD56CDAB84FCE0F9831A821B821C82DB
:1017B0009E012F5F3F4F44E061E0D10154968D912F
:1017C0009C9155970E94941469817A818B819C81A8
:1017D0000E94FB326B017C01B9821A829E012F5F4D
:1017E0003F4F42E061E0F101848995890E949414A1
:1017F000870176011127B101605F7F4FCA80A30185
:101800009201C1010C960E94A50FDBCC318D308F67
:101810007894AC01415F5F4F5F934F931F922F937A
:10182000FC0187891F928F9389811F928F9323EAEE
:101830003FE03F932F930E94D9158DB79EB70A962C
:101840000FB6F8949EBF0FBE8DBF4BCDC88AD98A04
:10185000EA8AFB8A3DCC6115710550E18507910547
:1018600008F0C2CE8B019C0101501F4F2F4F3F4FFC
:101870005527432F322F212F0E94EB32DC01CB0161
:1018800040912B0250912C0260912D0270912E02FA
:10189000840F951FA61FB71FA2CEE09073028E2D56
:1018A000807F803109F0E7CD1D1508F442CE8D2DE3
:1018B00090E0FC01EF58FD4F20812E3709F0DBCD81
:1018C000DC01A159BD4F1D01FC01E059FD4F908184
:1018D0008C91292F30E05901B82A6DEF6D0D82E708
:1018E00092E00E94A123A816B90639F1F090720285
:1018F000C2CD5489658990892189328943898F5F56
:10190000858F78946F935F934F933F932F939F931B
:1019100089811F928F93A1ECBFE0BF93AF930E9488
:10192000D9152DB73EB7265F3F4F0FB6F8943EBF8F
:101930000FBE2DBF20CC11E0C4CD802F8D7F8093B2
:101940002A0280910102E812FEC081E08E0D8F70A4
:10195000806180930102B4E72B16B2E03B0609F0E8
:1019600008F4BAC0E4E7F2E0ADB6BEB68F010F5F8F
:101970001F4F2081222309F4E3C0E8EEF4E08491B4
:10198000281708F0DDC030E0220F331F220F331F6D
:10199000220F331FF901E754FD4FE4914DB75EB7B5
:1019A00084E0E89F4019510911240FB6F8945EBFF6
:1019B0000FBE4DBF8DB79EB70196F901E554FD4F9F
:1019C0004491F901E454FD4F65917491FB01640F5A
:1019D000711DAC01BD86AC869D8B8C8B6E177F070D
:1019E00009F47FC02016310638F1A491A53038F1F2
:1019F000A73011F52801BFEF4B1A5B0AD8016C9094
:101A00008201060D111D20163106B0F0862C912C96
:101A1000A12CB12CDA018D929D92AD92BC921397BC
:101A2000612C712C14964D925D926D927C92179759
:101A3000485F5F4F3196D2CF87E00E947A327A01B9
:101A400094E0E90EF11C5801AFEFAA1ABA0AD801C6
:101A50001C91912F9F77492E512C612C712C012FB5
:101A60000076003691F117FF3AC085010F5F1F4FD6
:101A7000D80111978C91440C551C661C771C440CA2
:101A8000551C661C771C440C551C661C771C440CAA
:101A9000551C661C771C440C551C661C771C440C9A
:101AA000551C661C771C440C551C661C771C982F13
:101AB0009F77492A87FDDACFDA014D925D926D92C8
:101AC0007C921397A701319689CFB0EE4B2A55240B
:101AD0005A94652C762CC7CFCC24C394F5CC8501C1
:101AE000EBCFAC84BD848C899D894091270244232F
:101AF00031F0F901E654FD4FE491E0FF11C02254AA
:101B00003D4FF90125913491F90119950FB6F894DB
:101B1000BEBE0FBEADBE02151305F0F6F80124CF10
:101B2000809128021F928F93EDEFFFE0FF93EF93D8
:101B30000E94D9150FB6F894BEBE0FBEADBEEBCF56
:101B400085E00E947A321D2DB4CC81E20E947A3267
:101B5000CF93DF93EC016EEA7EE088810E94C42679
:101B6000488559856C81FC018081DF91CF910C946F
:101B7000B01A2F923F924F925F926F927F928F9204
:101B80009F92AF92BF92CF92DF92EF92FF920F930C
:101B90001F93CF93DF9300D01F921F92CDB7DEB774
:101BA0007C012DB73EB73D832C836EEA7EE0DC01DD
:101BB0008C910E94C4269B838A83F701F481F98368
:101BC000D70118966D907C9019971C968D919D91D8
:101BD0000D90BC91A02D80FD6BC01C012D01569471
:101BE000479437942794F701E088F188C22CD12CD0
:101BF000F9810F2F10E0C8018C0D9D1D2DB73EB748
:101C0000281B390B0FB6F8943EBF0FBE2DBF8DB702
:101C10009EB701965C01A801B3010E94793345018A
:101C2000800E911E8401222DA3016981AA81BB81AE
:101C30008C910E94261AC114D10499F0CE0CDF1C9D
:101C4000F4019601D7018D917D01809590818923C2
:101C50008083D9019D919D01892B8193CE14DF044E
:101C600089F76981620DA501EA81FB8180810E946B
:101C7000B01AEC81FD810FB6F894FEBF0FBEEDBF28
:101C80000F900F900F900F900F90DF91CF911F91B9
:101C90000F91FF90EF90DF90CF90BF90AF909F900B
:101CA0008F907F906F905F904F903F902F9008950E
:101CB0008FE10E947A32AF92BF92CF92DF92EF9281
:101CC000FF920F931F93CF93DF93CDB7DEB77C01C5
:101CD000ADB6BEB6FC01C0806EEA7EE08C2D0E94DF
:101CE000C426F701648140855185D4842DB73EB761
:101CF0002D1931090FB6F8943EBF0FBE2DBFEDB7B9
:101D0000FEB731967F018F012D2DFC0180810E944D
:101D1000261AFF92EF921F92DF921F92CF9282EBD0
:101D20009FE09F938F930E94D9152DB73EB7285FF0
:101D30003F4F0FB6F8943EBF0FBE2DBF0FB6F894BD
:101D4000BEBE0FBEADBEDF91CF911F910F91FF9030
:101D5000EF90DF90CF90BF90AF900895EF92FF92F9
:101D60001F93CF93DF93EC018C85182F1F7741E0F1
:101D700050E06EEA7EE088810E949E267C018C8184
:101D80009D81AE81BF81892B8A2B8B2BF1F48091B1
:101D9000BC0082FD10C061E089E10E94392261E04F
:101DA00088E10E9439221092B90088E48093B8003B
:101DB00084E08093BC00812F880FF7018083DF913E
:101DC000CF911F91FF90EF9008958FE20E947A3299
:101DD000FC011092260281E080933702878981609E
:101DE000878B448155816681778180859185A28525
:101DF000B385840F951FA61FB71F84839583A68381
:101E0000B78381E008950F931F93CF93DF938C01E5
:101E100062E47FE0FC0180810E94C426EC010E9404
:101E2000C72FF80184819581A681B7818C839D831A
:101E3000AE83BF8380859185A285B3858887998786
:101E4000AA87BB87892B8A2B8B2B29F4DF91CF9113
:101E50001F910F91089584859585A685B7858C87F8
:101E60009D87AE87BF8780899189A289B389888B36
:101E7000998BAA8BBB8BCE01DF91CF911F910F91D4
:101E80000C941930FF920F931F93CF93DF93EC01C3
:101E9000F88483E08F15E0F048E150E062E47FE0F1
:101EA00088810E949E268C0188EE9EE0F801938333
:101EB00082836AE373E18C810E94C426F801958BCA
:101EC000848BF68ADF91CF911F910F91FF90089537
:101ED0008EE10E947A32CF92DF92FF920F931F938E
:101EE000CF93DF93EC016AE373E18C810E94C426F7
:101EF0006C01F8840F2D10E0A8014D5F5F4F6BE679
:101F00007FE088810E949E26FC01D182C082F282FD
:101F10006C857D85A8010396DF91CF911F910F916C
:101F2000FF90DF90CF900C947933CF93DF93EC0147
:101F30006AE373E188810E94C426288539854C8133
:101F400060E0DF91CF910C9494144F925F926F9266
:101F50007F928F929F92AF92CF92EF92FF920F93C8
:101F60001F93CF93DF93EC014B01270138011F92A0
:101F7000CF927F926F925F92EF925F934F933F93D6
:101F80002F931F92AF9287EB9FE09F938F930E94B6
:101F9000D9158DB79EB70E960FB6F8949EBF0FBE9B
:101FA0008DBF88819981AA81BB81E816F9060A074D
:101FB0001B0750F0F40180819181A281B3818E15BD
:101FC0009F05A007B10720F480912702882379F0AC
:101FD000DF91CF911F910F91FF90EF90CF90AF9035
:101FE0009F908F907F906F905F904F9008958DE1BC
:101FF0000E947A328BE10E947A32FC0192899460CD
:10200000928B1092260281E08093580280E008951E
:102010000F931F93CF93DF93FC01A189B2898D9118
:102020009C911197928B818B16968D919C9117970D
:10203000C085D185228521113FC02FB7F894AC010E
:102040005527598348832FBF209138023091390298
:1020500011963C932E93B0933902A0933802A18934
:10206000B289109759F5278530898217930741F077
:1020700083859485A585B6850097A105B10531F4C2
:1020800080E0DF91CF911F910F9108954481558198
:1020900066817781840F951FA61FB71F8483958360
:1020A000A683B78385EA9DE09383828381E0DF91F5
:1020B000CF911F910F9108958883C6CF12964D91AD
:1020C0005D916D917C9115972785308982179307D3
:1020D00041F083859485A585B6850097A105B10556
:1020E00051F4448355836683778381E0DF91CF91F8
:1020F0001F910F9108950481158126813781800FEA
:10210000911FA21FB31F2B2F84179507A607270B1C
:1021100027FFE7CF80E20E947A32FC01448155819B
:1021200066817781208580810C944027EF92FF9211
:102130000F931F93CF93DF937C0160E171E1DC018A
:102140008C910E94C4268C010E94A215EC01F7011B
:1021500084819581A681B7818A839B83AC83BD836B
:10216000808591859F838E83F89419821882D80187
:1021700051968D919C915297892BB9F15396ED917F
:10218000FC915497D183C0835496DC93CE9353979C
:1021900080E090E07894892B39F4DF91CF911F9102
:1021A0000F91FF90EF900895C8010E94C72FD801AA
:1021B00012968D919C911397855A9D40F1F08A81DA
:1021C0009B81AC81BD8128E030E1F801338322831B
:1021D00084839583A683B783C801DF91CF911F9134
:1021E0000F91FF90EF900C941930F801D48BC38BB2
:1021F000D28BC18B81E090E0CDCF8A819B81AC8175
:10220000BD81F8014481558166817781272F481768
:1022100059076A072B0B27FFD6CF80E20E947A323C
:10222000CF92DF92EF92CF93DF93EC0148855985EF
:102230006A857B852C858C810E9440276B01E82E66
:1022400045E150E060E171E188810E949E26FC0139
:10225000C086D186E28688899989908B87878C8908
:102260009D89AE89BF8983879487A587B68788E0D3
:1022700090E19383828368E070E0CF014196DF9123
:10228000CF91EF90DF90CF900C942627DF92EF92C2
:10229000FF920F931F93CF93DF93EC01D88883E0D5
:1022A0008D15B0F16AE373E188810E94C4267C0138
:1022B0008AE090E00E94B6158C0161E08C810E945A
:1022C000FB1AF80160837183828360E088850E9435
:1022D0003922F80163837483858360E08C850E94D2
:1022E0003922F801668377838087D186F70185815B
:1022F000982F967081F4F7011183008382608583A3
:10230000DF91CF911F910F91FF90EF90DF90089593
:102310008BE10E947A320E94FA0F0F931F93FC0107
:10232000A489B58986898C9393A181E0892783A3A9
:10233000448155816681778180FF12C000851185B7
:1023400022853385400F511F621F731F82FD12C00B
:10235000448355836683778381E01F910F910895AD
:102360000485158526853785400F511F621F731F11
:1023700082FFEECF0089118922893389872F401788
:1023800051076207830B87FDE3CF81EF91E19383D0
:102390008283B901A801448355836683778381E0F2
:1023A0001F910F9108950895FC018081A481B5814A
:1023B00040855185628573859FB7F894813061F0BF
:1023C000823019F04C939FBF08954D935D936D93A8
:1023D0007C9313979FBF089511965C934E939FBF74
:1023E00008958F929F92AF92BF92CF92DF92EF9219
:1023F000FF921F93CF93DF93EC01EF8CF8A0E114D1
:10240000F10409F4F0C0F7018081918198A38F8FC6
:1024100086809780A084B18411E081149104A10486
:10242000B10409F4A1C06C897D898E89412F0E9475
:10243000341B8091380290913902F7019183808397
:10244000F0923902E092380281149104A104B1049F
:10245000E9F08B8D9C8DAD8DBE8D88169906AA06F0
:10246000BB06A0F44F89588D698D7A8D41155105B1
:102470006105710509F45BC08C819D81AE81BF81CE
:10248000480F591F6A1F7B1F166022C08BA131E0C5
:1024900081149104A104B10409F068C084FB992758
:1024A00090F921E09227391709F443C04F89588DDC
:1024B000698D7A8D4115510561057105D1F18C81C8
:1024C0009D81AE81BF81480F591F6A1F7B1F146019
:1024D000EF8DF8A1309709F077C02BA1488B598B6D
:1024E0006A8B7B8B2071212B2BA311FF5FC0880D82
:1024F000991DAA1DBB1D12FD52C02DE831E13B8381
:102500002A838C839D83AE83BF8388869986AA861F
:10251000BB868B8D9C8DAD8DBE8D88199909AA09BE
:10252000BB098C879D87AE87BF8781E011C0126091
:102530008BA1EF8DF8A13097D9F4188A198A1A8ADD
:102540001B8A8071812B8BA3812F827011FD34C077
:10255000DF91CF911F91FF90EF90DF90CF90BF90D0
:10256000AF909F908F90089510E05DCF30E096CFB0
:102570004281538164817581488B598B6A8B7B8B37
:102580008071912F9460892B8BA311FF0FC08C81D8
:102590009D81AE81BF81880D991DAA1DBB1D2B2F6A
:1025A00084179507A607270B27FDA7CF4C835D83CC
:1025B0006E837F8381E0CCCF40E050E0BA018C8114
:1025C0009D81AE81BF8193CFC280D380E480F580AE
:1025D000872F4C155D056E058F0987FD07C08BA100
:1025E000B701A601C9CF85E10E947A3283E10E943A
:1025F0007A32FC0185818F9384818F9380811F9231
:102600008F938AED9FE09F938F930E94D9150F902F
:102610000F900F900F900F900F900895DC012C9168
:102620001496ED91FC9115973FB7F8942130E9F09D
:102630002230B1F0808190E0A0E0B0E03FBFBF93D6
:10264000AF939F938F9385ED9FE09F938F930E940D
:10265000D9150F900F900F900F900F900F90089535
:1026600080819181A281B381E9CF80819181A0E0B5
:10267000B0E0E4CF0F931F93CF93DF938C0146E03C
:1026800050E06AE373E1FC0180810E949E26EC0128
:1026900061E0F80184810E9439226A837B838C8304
:1026A0008D8181608D83DF91CF911F910F9108956E
:1026B00046E050E06AE373E1FC0180810C949E26C1
:1026C0008F929F92AF92BF92FF920F931F93CF93DF
:1026D000DF93EC016AE373E188810E94C4268C01D8
:1026E000F88483E08F1508F484C0F8018581867032
:1026F00009F07FC08C849D84AE84BF848C819D81D1
:10270000AE81BF81892B8A2B8B2B09F074C0E8EB3B
:10271000FEE0A591B49111968C9180FD04C060E01B
:1027200088E00E94392260E089E00E94392260E05E
:102730008AE00E94392260E08BE00E94FB1A80E56B
:102740008CBD1DBC8114F2E19F06FAE7AF06B1040F
:1027500008F041C0811489E098068DE3A806B10411
:1027600018F5E0E88E16E4E89E06EEE1AE06B10448
:10277000C0F5F0E48F16F2E49F06FFE0AF06B10467
:1027800068F580E2881681EA980687E0A806B10419
:1027900058F590E0E0E98E16E0ED9E06E3E0AE0627
:1027A000B10428F583E002C090E080E0CF2DCC0F8B
:1027B000CC0FC065C82BF801C083918385818460EC
:1027C0008583DF91CF911F910F91FF90BF90AF90C4
:1027D0009F908F90089591E080E0E8CF90E081E0B5
:1027E000E5CF91E081E0E2CF91E082E0DFCF82E0CF
:1027F000DDCF0E94FA0F8CE20E947A32CF93DC0187
:1028000014969C91149720E030E0C22FF901E25118
:10281000FB4FE4919E1741F02F5F3F4F2031310570
:10282000A1F78BE20E947A3287E980937A00283000
:10283000E8F420917E0081E090E00C2E01C0880F2A
:102840000A94EAF7822B80937E004FE150E06EEF0E
:1028500073E18C910E949E26FC018EE594E29383A5
:102860008283C28F81E0858FCF91089520917D0072
:102870003C2F377081E090E001C0880F3A95EAF76D
:10288000822B80937D00E1CF0F931F93CF93DF9333
:102890008C016EEF73E1FC0180810E94C426EC0183
:1028A0000E94C72F909100028A8D981303C08FEF6A
:1028B00080930002F80184819581A681B781888B7D
:1028C000998BAA8BBB8B8C839D83AE83BF838085C2
:1028D0009185A285B3858C879D87AE87BF878485C8
:1028E0008E8F91E0980F9D8F4089518962897389FD
:1028F000488759876A877B87248935893F8B2E8B48
:10290000208D318D398F288F948D9C8F811105C03A
:10291000DF91CF911F910F910895CE01DF91CF915B
:102920001F910F910C9419308F929F92AF92BF928A
:10293000CF92DF92EF92FF920F931F93CF93DF938B
:102940004C01E62E142F6901DC0115968C91159728
:10295000982F967009F462C081FD6DC0F4019081DA
:1029600081819CBD8DBDD40115969C91159790FDDC
:1029700071C091FF7AC0D401CD91DC91AA24AA94B0
:10298000A10E1123A9F1B12CBFEFAB1ABB0AAC0CFD
:10299000BD1CF601F08008E010E0898580FF7AC058
:1029A000EE81FF81888580834F2D40786B817C810B
:1029B0008D810E94341BFF0CEE81FF81888580830E
:1029C000110FE881F98190818A81892391E009F4CE
:1029D00090E0192B015009F7EE2011F0D6011C935D
:1029E000BFEFCB1ADB0ACA14DB0499F6F401958118
:1029F00090FF14C0D40112966D917D918C9141E0AD
:102A0000DF91CF911F910F91FF90EF90DF90CF90CA
:102A1000BF90AF909F908F900C94341BDF91CF911B
:102A20001F910F91FF90EF90DF90CF90BF90AF90EC
:102A30009F908F900895ED91FC9141854270668141
:102A4000778180850E94341BD40115969C9115973F
:102A500090FF8FCF12966D917D918C9140E00E94F6
:102A6000341BF401958191FD86CFEE2071F18FEF3B
:102A7000810F112309F4BCCFF60190819EBD0DB4E6
:102A800007FEFDCF9EB591938150B8F7D4011596FE
:102A90009C91AECF4F2D40786B817C818D810E94BF
:102AA000341BFF0CEE81FF8188858083110FE88144
:102AB000F98190818A81892391E009F490E0192BB2
:102AC000EE81FF818885808385CFF6019601210FF5
:102AD000311D2E173F0709F489CF81918EBD0DB4AA
:102AE00007FEFDCFF6CFFF920F931F93CF93DF9397
:102AF000EC0118816AE373E1812F0E94C4260C81E6
:102B0000F884C9852F2D3C2F402F61E00E9494143A
:102B1000CF93FF921F920F931F921F938CEB9FE016
:102B20009F938F930E94D9158DB79EB708960FB6C5
:102B3000F8949EBF0FBE8DBFDF91CF911F910F9173
:102B4000FF9008952FB7F894809138029091390240
:102B5000009749F0FC014081518150933902409324
:102B600038022FBF08958FE00E947A32CF93DF930F
:102B7000C0913B02D0913C02AE01480F591F2DB7C6
:102B80003EB721503F4F22273A952417350770F062
:102B900050933C0240933B02AC0160E070E0CE01F8
:102BA0000E949433CE01DF91CF91089581E10E947C
:102BB0007A322F923F925F926F927F928F929F9282
:102BC000AF92BF92CF92DF92EF92FF920F931F933B
:102BD000CF93DF93CDB7DEB728970FB6F894DEBF5B
:102BE0000FBECDBF80913A028823C1F028960FB660
:102BF000F894DEBF0FBECDBFDF91CF911F910F9133
:102C0000FF90EF90DF90CF90BF90AF909F908F900C
:102C10007F906F905F903F902F90089581E0809318
:102C20003A028E01015E1F4F20919403509093034E
:102C30002515C0F4452D50E0CD8CDE8C3FEFC31A36
:102C4000D30AF60184913A01680E711CC3018136E2
:102C5000910554F1821B91098136910560F0109223
:102C60003A02C4CF109293031092940340E050E0D4
:102C7000512C20E0E1CF1092930360919403561AF7
:102C8000E52CF12C70E06D5C7C4FA70183E393E0B1
:102C90000E94823310929403509293038091C1005A
:102CA00080628093C100A7019A012D5C3C4F79019D
:102CB000F601A491A63008F42BC1AA2EB12CF3E0A2
:102CC000AF1AB108A20EB31EED8DFE8D329694910F
:102CD000ED8DFE8D3396C590D4902D5F3F4F3E8392
:102CE0002D83ED8DFE8D8491D70112968C93360144
:102CF000690E711C78866F826F807884C614D70441
:102D000009F435C18D809E80A814B90448F0F601FD
:102D10008491853009F4BFC008F441C0883018F0B0
:102D200086E00E947A32F80120813181F5016D80C0
:102D30007E80E619F709AF01FF0F660B770B498319
:102D40005A836B837C83A901330F660B770B6980F1
:102D50007A808B809C80641675068606970608F438
:102D6000C8C06D807E802FEF621A720AAD81BE816D
:102D70004C931801B4E02B0E311CF80122813381F1
:102D80008A01B901863009F4B7C0C3010E947933C2
:102D90004301800E911E9E828D828101A6C08230E9
:102DA00008F4AEC0833009F4D8C0F80140815181E5
:102DB0003A01812C912C0E5F1F4FD401C3018096E4
:102DC000A11DB11D80389105A105B10508F4C2C04F
:102DD000A4019301305F4F4F5F4F211530444105EF
:102DE000510508F43FC0D401C30118960097A042D2
:102DF000B10540F1A40193015C5F21153105410546
:102E0000504180F0D401C3015CE1B695A795979538
:102E100087955A95D1F78068AD81BE818C931196C4
:102E2000BE83AD83D401C30145E1B695A7959795BF
:102E300087954A95D1F78068AD81BE818C931196B4
:102E4000BE83AD83D401C3013EE0B695A7959795A7
:102E500087953A95D1F78068AD81BE818C931196A4
:102E6000BE83AD83ED81FE813196D401C30127E09D
:102E7000B695A795979587952A95D1F78068AD81E6
:102E8000BE818C939F012F5F3F4F3E832D83462D44
:102E90004F7740832AC098012E5F3F4FF801A081F1
:102EA000B1818D819E8101966C91662399F08A157E
:102EB0009B0580F4FD01319604C0A816B90609F4FB
:102EC00047C00196AC0141505109DA016C93619100
:102ED0006111F3CFAC016D807E80461957094150D6
:102EE000D3014C939E838D8389012FEFC21AD20A9E
:102EF00003CFB401A30135CFC3010E94633348CF90
:102F0000D8016D907D908D909C900C5F1F4F55CF98
:102F10001A2FD7011C938091010211968C936DEFAB
:102F2000610FC7010E94A123E10EF11CF701339745
:102F300090833196808331968EE78083A52DA10FF3
:102F4000A09393038091C10080628093C10087CEDB
:102F5000C501C0CFED81FE8195CFD8014D915C9127
:102F60003A01550F880899080E5F1F4F26CF0D8133
:102F70001E810E191F0913E0100FCBCF8091400264
:102F8000909141029F938F9321E03091270231115C
:102F900001C020E01F922F93209145022F93209192
:102FA00044022F93209143022F93209142022F93AA
:102FB00021E0892B09F420E01F922F938FED9FE0F1
:102FC0009F938F930E94D9158DB79EB70C960FB61D
:102FD000F8949EBF0FBE8DBF0895CF92DF92EF92FF
:102FE000FF920F931F930E948B239F938F937F9346
:102FF0006F9301E010E020E030E0C0904A02D090F2
:103000004B02E0904C02F0904D026C157D058E0550
:103010009F0518F000E010E0980180914602909121
:103020004702A0914802B0914902800F911FA21F50
:10303000B31FBF93AF939F938F9389EE9FE09F93AE
:103040008F930E94D9158DB79EB70A960FB6F89444
:103050009EBF0FBE8DBF1F910F91FF90EF90DF902D
:10306000CF9008950E948B239F938F937F936F93AC
:1030700084EE9FE09F938F930E94D9150F900F903D
:103080000F900F900F900F9008950F931F93CF9371
:10309000DF938C018091400290914102892B09F0CD
:1030A0004BC060913F0270E0623071052CF482E009
:1030B00080933F0262E070E0E0913B02F0913C02BD
:1030C0004DB75EB741505F4F44275A959F01C0E00E
:1030D000D0E0C901860F971F4817590730F1219694
:1030E0009C01C115A4E0DA07A1F78E1B9F0B0E947B
:1030F000B615D0934102C093400290933E02809354
:103100003D020E94DC26F80180819181A281B38179
:103110008093420290934302A0934402B0934502ED
:10312000DF91CF911F910F910895209711F0C90160
:10313000DCCF80E10E947A328DE00E947A328F9259
:103140009F92AF92BF92FF920F931F93CF93DF9303
:103150008C0160E379E1FC0180810E94C426EC01CE
:103160000E94C72F8F8D98A1892B09F058C0F801B4
:1031700004811BA1FF24F394002339F16C897D891C
:103180008E894F2D0E94341B21E001111CC014FBBD
:10319000882780F991E08927281741F08F89988D39
:1031A000A98DBA8D892B8A2B8B2B89F410711F293D
:1031B0001BA3DF91CF911F910F91FF90BF90AF9014
:1031C0009F908F90089520E0E2CFF12CD7CF0E94FE
:1031D0008B238F88988CA98CBA8CDC01CB01880D4D
:1031E000991DAA1DBB1D888B998BAA8BBB8B8C83C9
:1031F0009D83AE83BF8381EF91E19B838A831071AE
:1032000014601F291BA3CE01DF91CF911F910F9155
:10321000FF90BF90AF909F908F900C94193082E1F7
:103220000E947A32CF93DF93EC0160E379E18881E9
:103230000E94C426F894FC01278D30A1232B69F449
:103240004C815D816E817F81FC01438F548F658F3E
:10325000768F7894DF91CF91089584E10E947A323D
:10326000CF92DF92EF92CF93DF93EC0161E08885FC
:103270009985AA85BB85892B8A2B8B2B09F460E065
:103280008C810E9439226B01E82E44E250E060E319
:1032900079E188810E949E26FC01C48AD58AE68A4B
:1032A00021E0488559856A857B85452B462B472B30
:1032B00009F420E04C855D856E857F85452B462B86
:1032C000472BB1F430E0232BFC0123A34889598913
:1032D0006A897B89478B508F618F728F6AE070E0BB
:1032E0004F96DF91CF91EF90DF90CF900C942627EF
:1032F00030E1E9CFCF92DF92EF92FF920F931F93CD
:10330000CF93DF938C0160E379E1DC018C910E9423
:10331000C426EC010E94A215FC01D8011496CD90A0
:10332000DD90ED90FC901797C282D382E482F58203
:1033300018964D915D916D917C911B9746835783B3
:1033400060877187F894118210828F8D98A1892BE4
:1033500081F0A9A1BAA1ED93FC93FAA3E9A3789413
:10336000DF91CF911F910F91FF90EF90DF90CF9061
:103370000895FAA3E9A3F8A3EF8F8BA182FD25C0DE
:10338000C88AD98AEA8AFB8A982F94609BA381FD18
:1033900010C0CE010E94C72FCC82DD82EE82FF8258
:1033A00081EF91E19B838A83CE010E94193078944A
:1033B000D7CF4C815D816E817F81872F4C155D0554
:1033C0006E058F0987FFE5CFF2CF488959896A8951
:1033D0007B89972F4C155D056E059F0997FFD0CF10
:1033E00083E10E947A32CF92DF92EF92FF926B01DB
:1033F0007C0109C00E948B23292F6C157D058E0549
:103400002F0927FF09C08091BC0087FFF3CFFF90F1
:10341000EF90DF90CF9008958EE20E947A3224EAF6
:103420002093BC000E94F3198091B90090E0A0E0C5
:10343000B0E080319105A105B10521F00897A10503
:10344000B10509F408958DE20E947A327F928F923D
:103450009F92AF92BF92CF92DF92EF92FF920F9323
:103460001F93CF93DF93782EC62F942EB52E822EE6
:103470000E948B236B017C0120E8C20E28E3D21E40
:1034800021E0E21EF11CC701B6010E940F1A7092E2
:10349000BB0084E88093BC00C701B6010E94F31909
:1034A000AA24AA94AC0ECC23B1F0C92DDB2DB12CEB
:1034B0008FEFA81AB80AAC0EBD1E94E8992E899118
:1034C0008093BB009092BC00C701B6010E94F31923
:1034D000AC16BD06A1F7C701B6010E940F1A872DD1
:1034E00081608093BB0084E88093BC00C701B60173
:1034F0000E94F319DFEFD80D882009F15801CD2F74
:1035000084EC982ECC2369F09092BC00C701B601E0
:103510000E94F3198091BB00F50181935F01C150B6
:1035200099F7F801ED0FF11DEF0184E88093BC00DD
:10353000C701B6010E94F3198091BB00888384E91A
:103540008093BC00DF91CF911F910F91FF90EF907E
:10355000DF90CF90BF90AF909F908F907F90089515
:10356000BF92CF92DF92EF92FF920F931F93CF9370
:10357000DF93D82FC62FB42E152F0E948B236B01FB
:103580007C0120E8C20E28E3D21E21E0E21EF11CDD
:10359000C701B6010E940F1AD093BB0084E8809344
:1035A000BC00C701B6010E94F3190FEF0C0FCC232A
:1035B000A9F0CB2DD12F10E00F5F1F4F0C0F1D1F57
:1035C00084E8B82E89918093BB00B092BC00C701FB
:1035D000B6010E94F319C017D107A1F784E98093BF
:1035E000BC00DF91CF911F910F91FF90EF90DF9082
:1035F000CF90BF9008958036A0F567FD32C0E82FC8
:10360000E695E695E695F0E0EE0FFF1FEA54F14FE0
:10361000A591B491109729F1877021E030E0A901BC
:1036200002C0440F551F8A95E2F7CA014FB7F894BC
:1036300012963C911297662381F0382B282F209503
:1036400012963C93129711963C9111972323119651
:103650002C9311974FBFBD010895282F2095322339
:10366000EFCF89E20E947A32FB012FB7F894928162
:10367000411105C08095892382832FBF0895892B2E
:1036800082832FBF089580912702882329F08230FA
:1036900011F010922702089582E00E947A3288E0A9
:1036A0000E947A32CF92DF92EF92FF92FC0140812A
:1036B0005181628173812481E2EBFEE085919591D5
:1036C000A591B491481759076A077B0770F56A01FD
:1036D0007B01C20ED11CE11CF11C8C159D05AE05B1
:1036E000BF0500F5841B90E09A0122503B4F3F93A9
:1036F0002F939F938F937F936F935F934F9383EF5A
:103700009FE09F938F930E94D9158DB79EB70A961D
:103710000FB6F8949EBF0FBE8DBFFF90EF90DF9065
:10372000CF900895822F90E0DFCF80E090E0DCCF53
:103730008EE00E947A32CF93DF93EC016A8D66238C
:1037400009F453C0FC0150E031E020E0A38DB48DBA
:103750004C91958D942309F0532B2F5F330F3396A3
:103760002613F4CF2C85922F952729F08D85852758
:1037700080959823D9F4888D5D8787FD03C081509B
:1037800070F1888F4C815D816E817F8188859985FC
:10379000AA85BB85840F951FA61FB71F8C839D83A9
:1037A000AE83BF8381E0DF91CF910895982F9095EC
:1037B00029238523822B8C879E859830E0F621E093
:1037C000290F2E87FE01E90FF11D8787109226022F
:1037D00081E080934E028FEF888F5D87D3CF109268
:1037E000260291E090934E02CCCF50E0BBCFAF9237
:1037F000BF92DF92EF92FF920F931F93CF93DF93CD
:10380000FC01A485B585968547855089E188228984
:103810003389F488A588B6887789008D118DD28C7C
:10382000808586279C9384FD20C085FD22C086FD6F
:1038300024C087FD26C09C93862F8295807F808739
:1038400068279C9364FD2AC065FD25C066FD1CC0E9
:1038500067FD1EC09C93DF91CF911F910F91FF9048
:10386000EF90DF90BF90AF900895EA01E88285FF66
:10387000DECFE901F88286FFDCCFE501788387FFA0
:10388000DACFE801D882D7CFF501708367FFE2CFA6
:10389000E801D882DFCFE901F882D8CFFA01E082CF
:1038A000D3CF0F931F93CF93DF938C016DE77CE110
:1038B000DC018C910E94C426FC01D80114969C91D5
:1038C000828D9817B8F4292F30E0E901CC0FDD1F65
:1038D0002C0F3D1FEF01C20FD31FF80164858085B7
:1038E0000E94FB1A6B8F7C8F8D8FDF91CF911F9180
:1038F0000F91089583E20E947A32CF93FC01C48134
:10390000C930B8F44C2F50E09A01220F331F420FF8
:10391000531F455E5F4F6DE77CE1FC0180810E9493
:103920009E26FC01C28F2BE93BE133832283CF919A
:10393000089584E20E947A325F926F927F928F9212
:103940009F92AF92BF92CF92DF92EF92FF920F932E
:103950001F93CF93DF938C01FC01C080D180E28064
:10396000F38084809580A680B78066246A94660E72
:10397000662301F1EA01712CFFEF6F1A7F0A640ED2
:10398000751E59900E948B23DC01CB018C199D0977
:10399000AE09BF0988159905AA05BB0598F3652DE1
:1039A000C8010E94F71B0E948B236B017C01C61586
:1039B000D70539F7F801C082D182E282F382DF9124
:1039C000CF911F910F91FF90EF90DF90CF90BF901C
:1039D000AF909F908F907F906F905F9008950F931E
:1039E0001F93CF93DF93EC0167E27DE188810E9412
:1039F000C4268C01FC0161857285838541E00E94AB
:103A0000341B488559856C81C801DF91CF911F9186
:103A10000F910C949C1C0F931F93CF93DF93EC0199
:103A200067E27DE188810E94C4268C01FC016185EA
:103A30007285838540E00E94341B488559856C81DE
:103A4000C801DF91CF911F910F910C949C1CCF92D4
:103A5000DF92EF92FF920F931F93CF93DF93EC01CE
:103A60004BE150E067E27DE188810E949E268C0157
:103A700060E08C810E943922F80161877287838718
:103A800060E088850E943922F801648775878687FF
:103A900060E08C850E943922F8016787708B818BEA
:103AA00060E088890E943922F801628B738B848BD5
:103AB00060E08C890E943922F801658B768B878BB8
:103AC00060E0888D0E943922F801608F718F828FAB
:103AD000F8940E948B236B017C0160E0C8010E9476
:103AE000F71B0E948B237894DC01CB018C199D0974
:103AF000AE09BF09CC8CDD8CEE8CFF8C8C159D053E
:103B0000AE05BF0548F4C81AD90AEA0AFB0AF8014B
:103B1000C482D582E682F782DF91CF911F910F9107
:103B2000FF90EF90DF90CF9008954F925F926F9249
:103B30007F928F929F92AF92BF92CF92DF92EF923D
:103B4000FF920F931F93CF93DF938C01562E3A0170
:103B5000FC0180809180A280B380C480D580E68003
:103B6000F780EA012196FA014080642D607F0E946F
:103B7000342D0E948B23DC01CB0188199909AA09F5
:103B8000BB098C159D05AE05BF0598F3642D6295A4
:103B9000607FC8010E94342D0E948B236B017C0141
:103BA000F80180849184A284B384F1E05F1639F136
:103BB0005A945A94852D90E00296680E791E599079
:103BC000652D607FC8010E94342D0E948B23DC018B
:103BD000CB018C199D09AE09BF0988159905AA0565
:103BE000BB0598F3652D6295607FC8010E94342D56
:103BF0000E948B236B017C01C615D70501F7F801E4
:103C0000C082D182E282F382DF91CF911F910F9126
:103C1000FF90EF90DF90CF90BF90AF909F908F90EC
:103C20007F906F905F904F900895CF92DF92EF92C8
:103C3000FF92CF93DF93FC01A085B18582858C93A1
:103C4000968581E089278687C82FC170C688D78866
:103C5000E08CF18C97859F5FD1899D1708F05FC03C
:103C6000892F869586958695DF01A80FB11D5A96F6
:103C70002C9130E0892F877002C0359527958A9561
:103C8000E2F72170B701A601C217A9F033C0892F4E
:103C9000869586958695DF01A80FB11D5A962C91C1
:103CA00030E0892F877002C0359527958A95E2F715
:103CB0002170C2131FC04C0D5D1D6E1D7F1D9F5FC7
:103CC0009D1728F380E191E293838283848195811B
:103CD000A681B781480F591F6A1F7B1F44835583F4
:103CE0006683778381E0DF91CF91FF90EF90DF9043
:103CF000CF900895978784819581A681B781480FD9
:103D0000591F6A1F7B1F448355836683778381E035
:103D1000DF91CF91FF90EF90DF90CF900895B701A2
:103D2000A601D0CFCF92DF92EF92FF920F931F9315
:103D3000CF93DF93EC01E885F9858A8580830E9423
:103D40008B233E8521E023272E872F852F5F2F870A
:103D5000213009F45CC02530E0F40C811D812E81F6
:103D60003F814A895B896C897D89DB01CA01800FAB
:103D7000911FA21FB31F8C839D83AE83BF8381E0FD
:103D8000DF91CF911F910F91FF90EF90DF90CF9037
:103D90000895CC80DD80EE80FF80AB01BC014C1922
:103DA0005D096E097F098E899F89A88DB98D481B91
:103DB000590B6A0B7B0BDB01CA010296A11DB11DD9
:103DC000B7FD34C0B595A79597958795B595A795F7
:103DD000979587950A891B892C893D89800F911FAA
:103DE000A21FB31F8E8B9F8BA88FB98F25E13EE159
:103DF0003B832A834C0D5D1D6E1D7F1D840F951F17
:103E0000A61FB71F8C839D83AE83BF83B8CF0C8161
:103E10001D812E813F81AB01BC01401B510B620B08
:103E2000730B4E8B5F8B688F798F9BCFDB01CA0141
:103E30000596A11DB11DC6CFEF92FF920F931F9360
:103E4000CF93DF937C016DEB7FE1FC0180810E94C9
:103E5000C426EC011E8511FF07C0DF91CF911F9191
:103E60000F91FF90EF900895F701048160857185AF
:103E7000F4840B3008F045C0FAE0FF1508F441C0A7
:103E8000402F50E04A960E9479331F8611731260CA
:103E90001E87802F880F880F880F898BFF0CFF0CDF
:103EA000FF0CF88A002349F08A8D8F738A3229F437
:103EB00082E99EE19B838A830CC08A899B89AC89B5
:103EC000BD898E8B9F8BA88FB98F85E19EE19B83E7
:103ED0008A83F8940E948B23DC01CB018058934F96
:103EE000AF4FBF4F8C839D83AE83BF83CE010E94B3
:103EF00019307894DF91CF911F910F91FF90EF903F
:103F0000089585E20E947A320F931F93CF93DF9337
:103F10008C016DE77CE1DC018C910E94C426EC01F0
:103F2000D8011496EC918F898E0F8F8BF8948E8523
:103F3000E817D0F48E1BF0E03F96EC0FFD1FDE017A
:103F40001F962FEF280F30E0205F3F4F2C0F3D1FB3
:103F500091919D93A217B307D9F78E877894DF913B
:103F6000CF911F910F9108951E868EEF888F7894C0
:103F7000DF91CF911F910F9108957F928F929F9221
:103F8000AF92BF92CF92DF92EF92FF920F931F9367
:103F9000CF93DF93EC0144E250E06DEB7FE1888149
:103FA0000E949E268C0178848C809D80AE80BF808C
:103FB000CC84DD84EE84FF8461E0711001C060E098
:103FC000882D0E94FB1AF80163877487858761E05A
:103FD0008C2D0E943922F801608771878287888939
:103FE0009989AA89BB89828B938BA48BB58B71101D
:103FF00018C091E08C149D04AE04BF04C1F080E0B1
:10400000892BF8018687DF91CF911F910F91FF9047
:10401000EF90DF90CF90BF90AF909F908F907F9068
:10402000089591E18C149D04AE04BF0441F780E231
:10403000E7CF0F931F93CF93DF938C016DE77CE164
:10404000FC0180810E94C426EC010E94C72FF80168
:1040500084819581A681B7818C839D83AE83BF8344
:104060004085518562857385488759876A877B8734
:1040700080898D878C871E861F8A8EEF888F848526
:10408000898F87FD10C0452B462B472B29F4DF91E4
:10409000CF911F910F910895CE01DF91CF911F9184
:1040A0000F910C94193082E20E947A32CF93DF9301
:1040B000EC018E8585FD0DC0688579858A8541E096
:1040C0000E94341B8E85807381608E87DF91CF9133
:1040D0000895E885F9858A852FB7F8949281982B01
:1040E00092839181892B81832FBF8E85807381601C
:1040F0008E87DF91CF910895CF93DF93FC01A38545
:10410000B4855C918785982F977021E030E001C0DD
:10411000220F9A95EAF7982F969596959695DF0136
:10412000A90FB11D5A969C915A9745854523E1F0F8
:10413000292B5A962C938F5F90898917E8F48787EB
:10414000448155816681778186899789A08DB18D5B
:10415000840F951FA61FB71F84839583A683B783FB
:1041600081E0DF91CF910895209529235A962C93D1
:104170008F5F9089891718F3EF01CF010E945620B5
:104180008E8588608E871092260281E080934F0290
:1041900080E0DF91CF910895CF93DF93FC01A38559
:1041A000B4859C9185858923E9F08685846086871E
:1041B000878591E0980F9787803408F54481558171
:1041C0006681778186899789A08DB18D840F951F2F
:1041D000A61FB71F84839583A683B78381E0DF91F1
:1041E000CF910895868582FFE3CF17868CE790E212
:1041F00093838283CF01DF91CF910C947C20EF01D8
:10420000108ACF010E9456208E8588608E8710927A
:10421000260281E080934F0280E0DF91CF910895E4
:104220000F931F93CF93FC01C089CC23E9F18685BE
:1042300085FD23C017868CEC90E293838283868968
:104240009789A08DB18D880F991FAA1FBB1F880F5A
:10425000991FAA1FBB1F4481558166817781840FF6
:10426000951FA61FB71F84839583A683B783C1E0DC
:104270008C2FCF911F910F910895A385B4859585BB
:104280002FB7F89484FF21C012968C911297892B36
:10429000909512968C93129711968C911197982362
:1042A00011969C932FBFC6CF8C010E945620F80117
:1042B0008685886086871092260281E080934F026F
:1042C0008C2FCF911F910F91089512968C91129778
:1042D00090958923DECFB0990FC0809151029091C3
:1042E0005202019610920702109206029093090260
:1042F0008093080281E0089581E086BB809151029D
:10430000909152020196909352028093510220E0C4
:1043100030E83093070220930602909309028093BD
:10432000080281E00895CF93DF93FC018481958199
:10433000A681B7814489558966897789C58DD68DCF
:104340003881C42FC170278D232331E009F430E078
:10435000C31761F04F5F5F4F6F4F7F4F448B558B9B
:10436000668B778B808F918FA28FB38F4089518915
:1043700062897389272F481759076A072B0B27FF74
:1043800018C0248D2160248F4485558566857785E6
:10439000840F951FA61FB71F808B918BA28BB38BA9
:1043A0001092260281E08093500284819581A6813B
:1043B000B7814085518562857385840F951FA61F3F
:1043C000B71F84839583A683B78381E0DF91CF9164
:1043D00008950F931F93CF93DF938C016BE172E2EB
:1043E000FC0180810E94C426EC010E94C72FF801C5
:1043F00084819581A681B7818C839D83AE83BF83A1
:104400004085518562857385488759876A877B8790
:1044100044855585668577854C875D876E877F8760
:10442000888B998BAA8BBB8BCE01DF91CF911F918B
:104430000F910C9419300F931F93CF93DF93EC01DE
:1044400040E250E06BE172E288810E949E268C017E
:1044500068858C810E94FB1AF801658F768F878FA3
:1044600083E991E293838283DF91CF911F910F9132
:104470000895803678F5E82FE695E695E695F0E024
:10448000EE0FFF1FEA54F14FA591B491109711F16F
:10449000877021E030E0A90102C0440F551F8A95C2
:1044A000E2F7CA013FB7F89412962C911297611166
:1044B0000FC04095242312962C93129711962C919D
:1044C0001197282B11962C9311973FBFBD0108958A
:1044D000242BF1CF8AE20E947A321F920F920FB6FC
:1044E0000F9211240BB60F92EF92FF920F931F932E
:1044F0002F933F934F935F936F937F938F939F93EC
:10450000AF93BF93CF93DF93EF93FF930DC07A01E7
:1045100080918400909185008E199F0997FD7CC041
:104520007894B2999AC0F894C0912202D091230253
:10453000EA81FB81309709F0ADC0EA8DFB8D2C8DAF
:1045400020838E859F85019709F4C1C09F878E8740
:1045500088859985AA85BB854C815D816E817F8127
:10456000480F591F6A1F7B1F4C835D836E837F83B7
:1045700020832CA525FF0EC00C851D85012E000C67
:10458000220B330B800F911FA21FB31F88879987BF
:10459000AA87BB87E881F98104811581268137814B
:1045A000872F401751076207830B87FDB0CF780133
:1045B000F0932302E0932202A0912402B0912502FD
:1045C00014960D911D912D913C911797872F4017AF
:1045D00051076207830B87FFFD01DF010190F08126
:1045E000E02D0481158126813781872F40175107DF
:1045F0006207830B87FFF1CFF983E883CD93DC93C8
:10460000D0932502C093240280918400909185006C
:104610008E199F0997FF84CF863A9F4F0CF06AC08E
:10462000F0928900E0928800FF91EF91DF91CF91A5
:10463000BF91AF919F918F917F916F915F914F91BA
:104640003F912F911F910F91FF90EF900F900BBE14
:104650000F900FBE0F901F901895F89480918400D2
:10466000909185009701281B390B2038314CDCF1E3
:104670002091260227FF43C09C01205C304E3093DE
:104680008B0020938A0024E026BB909389008093BE
:1046900088003ECFCE0119954C815D816E817F816E
:1046A000811178CFE881F981E480F580F0932302CD
:1046B000E09322028091240290912502C817D90725
:1046C00009F026CFF0932502E093240221CFCE01FA
:1046D0000E94CE2AEA8DFB8D9C8D90834C815D815A
:1046E0006E817F81DDCF209127022111C1CF88E229
:1046F0000E947A327894B299B0CFF89409CF9C0195
:104700002854344F30938B0020938A0024E026BB3A
:104710007C01F39485CF2FB7F89460918400709159
:1047200085008091510290915202B09902C02FBF32
:1047300008952FBF7F3FE1F30196089578940E947A
:1047400097302FEF260F6623C1F0FC018FEF9FEF0C
:1047500031918327082E8295807F8025092E982FFE
:1047600082958F700826869598278927880F880F4D
:10477000880F8025215060F708958FEF9FEF0895EF
:104780001F93CF93DF93EC01162FAC89BD8910974F
:10479000B9F01296ED91FC9113978D919C91119720
:1047A0009D8B8C8B11961C921E9213961C921E92BE
:1047B0001297612FCD011995AC89BD89109749F7E2
:1047C0001092260281E080935302DF91CF911F91D6
:1047D0000895FC013897968990FF08C0608D678B1B
:1047E0009A7F9460968BCF010E94C02380E0089549
:1047F000FC0186898460868B1092260281E080937A
:104800005302448155816681778180899189A2898B
:10481000B389840F951FA61FB71F84839583A68332
:10482000B78381E00895FC01A085B1859C918285C4
:104830008923D1F0818D80958170C9F4838D815059
:1048400031F1838F44815581668177818785908995
:10485000A189B289840F951FA61FB71F84839583F2
:10486000A683B78381E00895818D817039F38FE04D
:1048700098E29383828383899489A589B689848306
:104880009583A683B783828D838F81E00895A7895E
:10489000B08D56969C915697892F817090FFE3CFEB
:1048A000648D57966C9357979A7F946056969C9315
:1048B0005697CD010E94C02380E00895FC018091AD
:1048C0007A0086FF0EC084819581A681B7818853C6
:1048D000984FAF4FBF4F84839583A683B78381E002
:1048E0000895828D90910002981781F09F3F59F7AB
:1048F00080930002982F987090937B00877080645B
:1049000080937C0087ED80937A00DDCF8FEF8093DA
:1049100000022091780030917900858D968D89175D
:1049200080F544895589240F351F8F5F358B248B83
:10493000858F891760F18689978928173907C8F10B
:10494000808D918D82179307A0F1138E109226020D
:1049500081E08093540240895189628973898085FE
:104960009185A285B385840F951FA61FB71F808BE5
:10497000918BA28BB38B84839583A683B78381E0CD
:10498000089581E0358B248B858F8917A0F64481AB
:1049900055816681778184859585A685B785840F45
:1049A000951FA61FB71F84839583A683B78381E0D5
:1049B0000895838D8F5F838F948D891738F280914E
:1049C00027028111C2CF8AE10E947A32EF92FF92D0
:1049D0001F93CF93DF937C01FC0110816DE575E29D
:1049E000812F0E94C426EC01F8948E8980FF09C0B3
:1049F000F70164816F8B8A7F84608E8BCE010E9469
:104A0000C023CE010E94C72FCE0108960E94C72F57
:104A10001E8A8F8978941F921F921F921F921F9255
:104A20008F931F921F921F921F9386EC9FE09F937C
:104A30008F930E94D9158DB79EB70C960FB6F89438
:104A40009EBF0FBE8DBFDF91CF911F91FF90EF9062
:104A50000895CF93FC01C08163EF75E28C2F0E9413
:104A6000C426FC01F894818D33894489558966896F
:104A70007894A085B1852C919285922321E009F448
:104A800020E01F922F936F935F934F933F938695F0
:104A900081701F928F931F92CF938BEC9FE09F9317
:104AA0008F930E94D9158DB79EB70C960FB6F894C8
:104AB0009EBF0FBE8DBFCF91089549E150E06DE5D7
:104AC00075E2FC0180810E949E2628EF33E2FC0102
:104AD0003383228329EE33E2338722870895EF92CE
:104AE000FF920F931F93CF93DF938C016DE575E2D7
:104AF000FC0180810E94C426EC01F8948E8980FF1D
:104B000013C07E01F8E0EF0EF11CC7010E94C72F11
:104B1000F80184819581A681B7818C879D87AE87B6
:104B2000BF87C7010E9419307894DF91CF911F9100
:104B30000F91FF90EF9008950F931F93CF93DF9302
:104B40008C0163EF75E2FC0180810E94C426EC01B8
:104B50000E94C72FF80184819581A681B7818C833B
:104B60009D83AE83BF8380859185A285B3858F8722
:104B7000988BA98BBA8B84858A8F882361F1F80181
:104B800040895189628973894B875C876D877E87ED
:104B90002FE038E23B832A838B8F84899589A6890D
:104BA000B789892B8A2B8B2BA1F482E0898F6DE545
:104BB00075E2F801808D0E94C426988F8F8BF801D2
:104BC000848D8C8FCE01DF91CF911F910F910C942A
:104BD000193083E0EBCF188E1F8A198EDF91CF91A9
:104BE0001F910F9108950F931F93CF93DF93EC01C3
:104BF0004DE150E063EF75E288810E949E268C01B2
:104C000068858C810E94FB1AF80160877187828712
:104C1000DF91CF911F910F910895CF93DF93EC0116
:104C20000E94C72FCE0108960E94C72FEC89FD89EC
:104C3000309751F09081818113821282118210820B
:104C4000E92FF82F3097B1F71D8A1C8A188E1F8A1A
:104C50001E8ADF91CF9108950F931F93CF93DF9317
:104C60008C016DE575E2FC0180810E94C426EC0197
:104C7000F8940E940D2681E08E8BF8018481958145
:104C8000A681B7818C839D83AE83BF838085918508
:104C9000A285B385888B998BAA8BBB8B892B8A2B9A
:104CA0008B2B19F0CE010E941930F8018485888F72
:104CB0007894DF91CF911F910F910895CF93209118
:104CC000560230915702232B91F4FC01C0818C2FA6
:104CD00090E0880F991F880F991F0E94B615909336
:104CE000570280935602C0935502CF9108958AE0EF
:104CF0000E947A32CF93DF93EC0198814091550264
:104D0000A0915602B09157020BC0FD0184E0989F1C
:104D1000E00DF11D1124208131812617370741F064
:104D20009F5F941790F380E090E0DF91CF9108951A
:104D3000988382819381DF91CF910895CF93DF9300
:104D4000909155028917E8F4C0915602D09157020C
:104D500094E0899FC00DD11D112488819981892BF0
:104D600081F48091400290914102892B51F4798322
:104D70006883CA010E94B6159B838A83DF91CF9115
:104D800008958BE00E947A3290915502891788F439
:104D9000E0915602F091570294E0899FE00DF11DD9
:104DA0001124808191818617970719F4828193815C
:104DB00008958CE00E947A32CF92DF92EF92FF92B8
:104DC000CF93DF93C0914002D09141022097B9F177
:104DD00021976E01E12CF12CA0913F02B0E02097C9
:104DE000D9F020E030E040E050E0BA0180913D028F
:104DF00090913E02FC01E20FF31F4F5F5F4F6F4F38
:104E00007F4F2A0F3B1F820F931F918380834C1586
:104E10005D056E057F0550F380913D0290913E0245
:104E2000CA9FF001CB9FF00DDA9FF00D1124E80F1F
:104E3000F91F118210829093390280933802DF911A
:104E4000CF91FF90EF90DF90CF900895FC011382F7
:104E50001282118210826F3F710509F07CF48091FB
:104E6000400290914102892B49F480913F0290E0E9
:104E70008617970714F460933F0208950E94981BC9
:104E8000CF92DF92EF92FF921F93CF93DF936A014D
:104E90007B016EEC7EE0FB019491981749F0675F0F
:104EA0007F4FFFE06E357F07B1F782E30E947A32D1
:104EB000FB013896949191FF1AC030EAC3163FE582
:104EC000D306E104F10408F483C0C0E8CC16CEE7B1
:104ED000DC06C1E0EC06F10408F090C0D0E4CD1689
:104EE000DFEBDD06E104F104C8F414E022C0F8EBC6
:104EF000CF16F7E4DF06E104F10490F0A0ECCA1647
:104F0000AEE3DA06A1E0EA06F10408F475C0C114C4
:104F1000BBEFDB06B4E0EB06F10438F315E009C0A3
:104F200037EFC31638E0D306E104F10408F05FC0A0
:104F300011E0FB013396A591B491FB013596C59123
:104F4000D491FB0137963491E82FE695E695E695E6
:104F5000F0E0EE0FFF1FEA54F14F45915491877036
:104F6000E1E0F0E07F0101C0EE0C8A95EAF7FB0179
:104F70003196C590D490892F8170A038B10509F47D
:104F80004BC0EFB7F8949881977011F0191341C096
:104F9000188381112EC09FB7F894622F70E0E6014C
:104FA000798368839FBF9C913160392B3C93DA01F0
:104FB00011969C911197E92A1196EC92EFBFB601D8
:104FC000DF91CF911F91FF90EF90DF90CF900895E8
:104FD000A8EDCA16A7E2DA06E104F10468F4B7EF17
:104FE000CB16B8E0DB06E104F10408F4A1CF12E02F
:104FF000A0CFE6012883D7CF13E09BCFC114EBEFFE
:10500000DE06E4E0EE06F10410F416E092CF17E0BD
:1050100090CF80E30E947A3281E30E947A320F932C
:105020001F93FC01A085B1859C9104811581268187
:1050300037814385548565857685400F511F621FF2
:10504000731F8285892361F0818D8095817059F06D
:10505000448355836683778381E01F910F91089580
:10506000818D8170A9F7438B548B658B768B83E19F
:1050700094E293838283CF011F910F910C941324A8
:10508000CF93DF93EC0168E77AE288810E94C4261F
:10509000FC018C819D81AE81BF81892B8A2B8B2B5A
:1050A00051F420E0F89494A59D7F922B94A77894D6
:1050B000DF91CF91089522E0F5CF0F931F93CF9307
:1050C000DF938C01EC01A897CE010E94C72F1C82B0
:1050D0001D821E821F821A8A1B8A1C8A1D8A88A131
:1050E00099A1AAA1BBA12CA54E855F856889798964
:1050F00024FD04C07695679557954795841B950BBD
:10510000A60BB70BB7FD40C0B095A09590958195C3
:105110009F4FAF4FBF4F88A399A3AAA3BBA31E86DF
:105120001F86188A198A247128602CA76D8D7E8DA0
:105130008F8D40E00E94341B4CA544706A8D7B8D9E
:105140008C8D0E94341BD8011497ED91FC9111971E
:105150003097A9F0409138029091390201C0F901CD
:105160002081318140839183F0933902E0933802AA
:105170004E2F9F2F2115310591F71D921C92DF9123
:10518000CF911F910F910895B095A095909581951D
:105190009F4FAF4FBF4FB8CF0F931F93CF93DF9366
:1051A0008C0168E77AE2FC0180810E94C426EC0150
:1051B0006DE575E2F80184810E94C426BE01685D38
:1051C0007F4F4FB7F8942AA53BA5232B89F42DE5F3
:1051D00038E23BA72AA7FC012489358939A728A7EB
:1051E000758B648B4FBFDF91CF911F910F91089505
:1051F00089E10E947A32CF93DF93EC0168E77AE28B
:1052000088810E94C426FC018C819D81AE81BF8172
:10521000F8944685578560897189452B462B472B25
:1052200079F484839583A683B783828B938BA48B35
:10523000B58B84A5877F84A77894DF91CF9108955B
:1052400086E10E947A32CF93FC01C08168E77AE25E
:105250008C2F0E94C426FC01F89480A191A1A2A1E8
:10526000B3A124A5468557856089718924FD04C0B2
:105270007695679557954795841B950BA60BB70BAD
:10528000B7FF07C0B095A095909581959F4FAF4F00
:10529000BF4F7894B054BF93AF939F938F931F9257
:1052A000CF9380ED9FE09F938F930E94D9158DB788
:1052B0009EB708960FB6F8949EBF0FBE8DBFCF91D4
:1052C00008954F925F926F927F92BF92CF92DF923A
:1052D000EF92FF920F931F93CF93DF93FC01B08067
:1052E00066E37AE28B2D0E94C426EC014D805E803D
:1052F0006F807884C984DA84EB84FC840E948B23D9
:10530000DC01CB0184199509A609B7098C159D0507
:10531000AE05BF0568F40E948B23DC01CB01841924
:105320009509A609B7098C159D05AE05BF0598F32B
:10533000CD84DE84688179818A81A0918400B091D6
:1053400085000B811C819E01215F3F4F7901C20EB8
:10535000D31ECE14DF0409F457C0F70191917F01E9
:1053600028E013C0F8944091840050918500FB011F
:10537000808380837894FA01EA1BFB0BE017F10726
:10538000D8F4990FDA01215021F397FFEBCFF8946D
:105390004091840050918500FB0180837894FA014C
:1053A000EA1BFB0BE017F10738F4990FF894FB01A7
:1053B00080837894DA01E7CF40E00E94341B0E949A
:1053C0008B236D837E838F83988780E01F928F93DA
:1053D0001F92BF9289E99FE09F938F930E94D915F6
:1053E0000F900F900F900F900F900F90DF91CF9133
:1053F0001F910F91FF90EF90DF90CF90BF907F9023
:105400006F905F904F9008950E948B236D837E83F1
:105410008F83988781E0DACF0F931F93CF93DF9329
:10542000EC0166E37AE288810E94C4260C811D812A
:105430002E813F8148856C857D8517FD14C050E025
:10544000DA01A00FB11FEC01ED85FE85EA17FB071D
:1054500050F0015F1F4F800F911FDF91CF911F917F
:105460000F910C94793386E20E947A326F927F9288
:105470008F92CF92DF92EF92FF92CF93DF93EC0166
:1054800060E08C810E9439223B01882EC884D98437
:10549000EA84FB84D7FC24C0A601415F5F4F66E32A
:1054A0007AE288810E949E26FC016082718282825B
:1054B000D686C5868C859D859483838388899989C2
:1054C000AA89BB8981879287A387B487DF91CF910F
:1054D000FF90EF90DF90CF908F907F906F90089526
:1054E00087E20E947A32FC01648180810C94392227
:1054F0000F931F93CF93DF938C014DE250E068E749
:105500007AE2FC0180810E949E26EC01F8018485EC
:1055100018160CF041C064E06CA7F80184810E9469
:1055200039226A8F7B8F8C8F60E0F80180850E9422
:1055300039226D8F7E8F8F8F80E090E0A0E0B0ECFD
:1055400088A399A3AAA3BBA3F80180899189A28902
:10555000B3898E8B9F8BA88FB98F6BE070E0CE01E3
:1055600084960E9426278E899F89A88DB98D899758
:10557000A105B10548F08BE09CE29B838A83DF9113
:10558000CF911F910F9108958CA580618CA7DF9119
:10559000CF911F910F91089560E0BECFCF92DF921F
:1055A000EF92FF92CF93DF93FC01A4A1B5A11097D6
:1055B00061F416861786108A118A80E0DF91CF91F8
:1055C000FF90EF90DF90CF9008958D919C9111976F
:1055D00095A384A316968D919C91179795878487A0
:1055E0001296CD90DD90ED90FC901597AC01092EB0
:1055F000000C660B770B4C0D5D1D6E1D7F1D4087EB
:1056000051876287738724A524FD43C0428953894B
:1056100064897589C40ED51EE61EF71EC28AD38A18
:10562000E48AF58AC482D582E682F78218968D9143
:105630009C911997AC0160E070E0440F551F661F04
:10564000771F46875787608B718B1A962C911A9714
:1056500020FD3FC040A151A162A173A1480F591F75
:10566000611D711D40A351A362A373A380913802F1
:105670009091390211969C938E93B0933902A09326
:10568000380281E0DF91CF91FF90EF90DF90CF90D3
:1056900008954481558166817781C40ED51EE61E2A
:1056A000F71EC482D582E682F782892B31F120620F
:1056B00024A718968D919C911997AC0160E070E039
:1056C00046875787608B718B1A962C911A9720FF0B
:1056D000C1CFAC0160E070E0C0A0D1A0E2A0F3A017
:1056E0004C195D096E097F0940A351A362A373A3FE
:1056F000C58DD68D878D8883B9CF2F7DD9CF0F9358
:105700001F93CF93DF938C0168E77AE2DC018C91E1
:105710000E94C426EC010E94A215FC01D801149637
:105720004D915D916D917C91179742835383648372
:10573000758318968D919C91199791878087892BF5
:1057400009F466C0D8011C968D919C911D97978392
:1057500086831286F8948CA5282F217081FB9927C7
:1057600090F9291729F091E0892792859160928715
:105770004E855F8568897989452B462B472B59F5DE
:1057800083FD19C08CA7118210828CA19DA1892B49
:10579000A9F1AEA1BFA1ED93FC93FFA3EEA3CE01AF
:1057A0000E94CE2ACE010E9419307894DF91CF91C9
:1057B0001F910F9108958091380290913902918341
:1057C0008083F0933902E09338027894DF91CF918F
:1057D0001F910F9108958CA7118210828CA19DA119
:1057E000892B89F0AEA1BFA1ED93FC93FFA3EEA39B
:1057F0007894DF91CF911F910F910895FFA3EEA3AD
:10580000FDA3ECA3CCCFFFA3EEA3FDA3ECA3CDCFD0
:1058100087E10E947A32CF92DF92EF92FF920F934C
:105820001F93CF93DF93EC01EA8DFB8D8C8D8083EA
:105830000E948B230E891F89288D398D6B017C0175
:10584000C00ED11EE21EF31E8E859F85A889B989E0
:105850000197A109B1098E879F87A88BB98B80FF1B
:105860000EC0CC82DD82EE82FF8281E0DF91CF919B
:105870001F910F91FF90EF90DF90CF900895892BAB
:105880008A2B8B2B59F1488559856A857B858A89B6
:105890009B89AC89BD89840F951FA61FB71F8A8B72
:1058A0009B8BAC8BBD8B0C851D85012E000C220BB8
:1058B000330B400F511F621F731F488759876A8738
:1058C0007B872B2F8C159D05AE052F0927FDC9CF92
:1058D0008C839D83AE83BF8381E0C8CFCE010E94BD
:1058E000CE2A811102C080E0C1CF4C815D816E81E2
:1058F0007F81972F4C155D056E059F0997FFB6CFE9
:105900004C195D096E097F094038514C6F4F7F4F2C
:105910000CF0A7CF88E10E947A320F931F93CF93A8
:10592000DF938C0146E450E06DE87CE2FC0180816D
:105930000E949E26EC018DEF9FE09B838A836AE3A1
:1059400073E1F80184810E94C4269D878C87DF91D2
:10595000CF911F910F9108958F929F92AF92BF9216
:10596000EF92FF920F931F93CF93DF931F921F929B
:10597000CDB7DEB77C016DE87CE2FC0180810E943E
:10598000C4268C0189EB89831A820E948B234B01E8
:105990005C019E012F5F3F4F42E061E0F80184858A
:1059A00095850E9494140E948B23F80121892F93DE
:1059B00020892F932A811F922F9323891F922F933F
:1059C00027852F9326852F93DC01CB018819990910
:1059D000AA09BB09BF93AF939F938F93BF92AF92D6
:1059E0009F928F92F70180811F928F938DEA9FE0A3
:1059F0009F938F930E94D9150FB6F894DEBF0FBE08
:105A0000CDBF0F900F90DF91CF911F910F91FF901D
:105A1000EF90BF90AF909F908F900895CF93DF93BA
:105A2000EC0144969F938F938B891F928F938F8560
:105A30008F938E858F931F926F9388EA9FE09F9339
:105A40008F930E94D9151B8A8E859F8501969F870B
:105A50008E878DB79EB70A960FB6F8949EBF0FBE7D
:105A60008DBFDF91CF910895CF93DF93DC011C961A
:105A7000ED91FC911D971E969C911E971F96CD91BE
:105A8000DC91509751962C9188E005C09083660F69
:105A90009083815049F067FFF9CF28836095908308
:105AA000660F90838150B9F7DF91CF9108950F93DE
:105AB0001F93CF93DF93EC0166E77DE288810E941C
:105AC000C4268C016AEF0E94342D6C81611105C0DF
:105AD000DF91CF911F910F91089548855985C80195
