:100000000C94DD060C9408070C9408070C94080760
:100010000C9408070C9408070C9408070C94080724
:100020000C949F310C9408070C9408070C94080753
:100030000C9408070C9434210C9408070C940807BE
:100040000C9408070C9408070C9408070C940807F4
:100050000C9476310C944C310C9408070C940807DE
:100060000C9408070C9408070C9408070C940807D4
:100070000C9408070C9408070C9408070C940807C4
:100080000C9408070C9408070C940807040004005B
:10009000000407000400020000040000000000004B
:1000A0000004000000000404040400040704040029
:1000B000040400000000000407070400000400021C
:1000C0000204040004040004040404000004040402
:1000D0000002030000020400000202000400000409
:1000E00000040404040004000004000400000000F4
:1000F0000000000001020102EA00191A02010001D9
:100100003B0D0C1703010001E90020240404000446
:10011000100DB02005020002140D441B0600010062
:1001200000000A1A07020002EA003429080200024D
:10013000140D4B1E09010001E900EC230A03000322
:10014000E6009E2D0B020002E40032240C020002A5
:10015000E40011120D0001000000B4160E080008A2
:10016000DC005F240F060006D600E70F1002000235
:10017000140D8D2711020101360DD0111203000359
:10018000D300640F13040004CF00402A14010001BF
:10019000E900212515050005CA00E01E160300032D
:1001A000C700B62417040003160D420E18050005FB
:1001B000C200F71719010001E900E4271A03000241
:1001C000270D172C1B080008BA000B131C02000295
:1001D000E400BC271D050003B700900C1E020002BE
:1001E000140D4E2B1F030002270DB61B2004000424
:1001F000300D181B21040004230DEF2422030003FB
:10020000C700190E23030002270D3A14240300022D
:10021000270D7F0C25000100000040312606000656
:10022000B100362C270001000000161A2801000139
:10023000E900222829040004100D37122A030003C4
:10024000AE00E2202B0001000000F9162C04000390
:10025000AB00E31D2D050005A60039292E02000282
:10026000E400D9172F030103E600AB1030030003AD
:10027000290D6D0F31030002270DD21B3206000637
:10028000B1001D1033040003190DCD283402010202
:10029000E400E51135050005A100DA0D3602000283
:1002A000E400D51237010001E9006D2B380100018F
:1002B000E9002F12390800089900EE1B3A050005E5
:1002C0009400F7283B030002270D6C0E3C0400034A
:1002D0009100320D3D020002140DA9233E030002DD
:1002E000270DA82C3F0001000000851640020002E7
:1002F000140D0127410500058C00841E42020002F6
:10030000140D661743030003E6004118440400047B
:10031000100D850D450001000000AA1046000500E3
:100320000000000102030405060778DA9D597B6F7F
:1003300023B711FF2A8C80439BC231A4D5D32EF260
:10034000872D3BC5A1F19D733AF70A14C182DEA542
:1003500024C2FBCA72D78F06F7DD3B0FBEB4522E04
:10036000400F38885C0E87C399DFBCE8DF478FBD3C
:100370002EF2F459B546D795195D8E76597629FE39
:10038000FA8FF5FA7B313F9F9D8FC5A3AEFA4E17CA
:1003900006BF7E7810D776FABD48CE93C579329ED7
:1003A0002CC693643E3A1B657559CA2A0726BF8F2F
:1003B0006451D499EC545AEBDC88ACEEABEEC777C1
:1003C000D9E832199FC1915D0767A5327B12B00C45
:1003D000DF238255B49EE76EBDA90DFDE8EAC7771D
:1003E000BD68FAA248FB86E8A749D8F05BAFDA37C8
:1003F000CF12047842EA56992EED74F66478D6B599
:10040000B232A5EE5277A8D015DCDFCA37817B1453
:100410004AB6A9D9F75D5EBF54A3CB055EADDAEA53
:100420001D48F45A4C677377846974CA4390631CFF
:10043000A82A59D4BB54575E7A127B74399F791A13
:100440002BB2A3E0691AD430F794F44DB587BC0EF3
:1004500054304B3C71AE77BA93455AF7DD60C3B365
:100460002C7A85F35C6D655F74A9FF50CAD734EFB1
:100470005BD9010048CC2488A9C09C5DDD1CF0CA72
:100480000E0E4FC2E1FB7C365BAEC68EB835A93D81
:100490005BB9413EF3A3B91F2DFC68E947AA906FF1
:1004A000DE66A08DA53F4427993B0086A047B62A6B
:1004B000400D7F0132606EDEB458F94D95AA1BFDE8
:1004C000AA8A814E72D9C9D4E8FFC2D67D0F38EF0F
:1004D00052D4450415A3E093AE624902D3E6A53C8D
:1004E000A1E7EC0DE01378582DEFFBA1DEE1CB91F5
:1004F000E227C1EA00AD217A2649BCEAF1790C462F
:10050000E196D2D2EC7E7CF73770C8647AB0F745BA
:10051000777B103DCD1C00E16201E5A65B5E24DE29
:100520008C9937A3C98A273FD6B91FBE55597A6817
:10053000319195793A34E274159DA09A26601AA7F4
:10054000A9C556AE5B3764B724E240D51746454C83
:10055000674165DD5EB5650DEED214EA8452E2E5D1
:10056000B47B6B14BB6DC07A5766BD6CBD3DDBD7E9
:10057000F4C8D744E73F225A3A5D2A865A24458B6D
:10058000FAF06A05BDE7EAB10708D60DD05DB829D3
:1005900070D911FED83E93A55B689584A8D7E6AACA
:1005A000C5F310CF8CBBC411BCB4BA534714083484
:1005B00056087052A56A77AACADE52745E10028E7F
:1005C000B59E9CEEEB521D854823CB2646AD9DFB88
:1005D0000079184241F6103DF8BE5EC9ADDEED541B
:1005E0008BB730086AD0C064160EA7000D42C94E02
:1005F000790D816C5B0D1113DC30651D8AACCD3833
:10060000109D8D76E0812426DC6C6AA74404CAB470
:10061000F3BE413BC04130B721283570620A20F457
:100620000116C7ACEAD9C5800CADE0C88245A690DA
:100630000830C09475AEB76F2998DBF36A157995C9
:10064000B0790244C055EB6817BC8DCD78488FDF78
:10065000D242B1372FC64C68CD79743CB8A3CE5581
:10066000D5C1E1A2DE6EE114F22B9F20403C17D5EC
:10067000E81A5E9FB371B4D23779D03567D17D1F48
:100680001D3307366C94416A3B9D3DE1D8F1600310
:1006900059B38FE2C8DC130CD3E0FF09B732C0CDE9
:1006A00006CD308354BE838D7B953D45C933593A81
:1006B0001906C9D34BD0D4E0D2C3F3A3A8E2F69F66
:1006C0008A297F505844621E4889CE3B257EBD3A18
:1006D000959F3DBB3ACE338BA5DB3248339EDC2B56
:1006E00001C45D39628C913E3DE2CD392C38DCECA1
:1006F0002943C2AF064B025229C301D8967648FB64
:10070000D9DF86E78156E114A489EF30282E469779
:10071000CB231ABA006545CFF2204582F80BDE5490
:10072000A9572B012401EF12BA25C68B191339756D
:10073000FC49BA85FBA1B898278373C4C0BF70ABCE
:100740001DD61071BEB0250538BE8A4A0B10731233
:10075000B6987ADBBDC856C57B4B6D6A971DCADA61
:10076000E85369F388E97CCC4CA928DD06A44691BE
:10077000001C8A33F2B7A2DA2239A43A1DD412D46B
:1007800034E7DE14432704048DD587F7DE641E08A2
:100790002862232839A60B1FE2A3800F6A0696362B
:1007A000731EA89AE29A0F7B1C99C0847637EA10D0
:1007B000A3F6096003CB49A0EBE28CAC9ABAB5E989
:1007C00080FD8FE6DEF8EAB5D1609228F74CA79E4F
:1007D000D3E01611D1028EE33879CA3D03B4178BEA
:1007E000AF2ECB63877375B34EEFAEFE8D2111AB89
:1007F000ABEB874D7AFFFEC306EB2BE8A2EEAF17FB
:1008000067F7D773F8BF1C458BDD0B2DAEC767F7B5
:10081000EB092CAC7FFEB8FE67FAD3A7DB5F5093E1
:1008200063FA7736BA5B3F0095EC4AB5939364352B
:100830006B80F2FECB1D1F976084FD74BBBE7DFFF5
:10084000AFDBF4CBFB0F371FBFA03327F87173FB6F
:10085000093EB218AAD5B2C0C36EE0B01B3C0C561C
:10086000DF5FFD9C5E5F3DDC201B3E6BF3F9EAF32E
:1008700026DD3CDC6D7E8195CD2DAEE04555D54322
:100880001541B5293574B6D8C6215D620C34006AAD
:100890009CDF5F8D4797FF199FAD7E0531AF71BC1F
:1008A000E2F11AC700109ADCE0045A8BD5AF5F1949
:1008B000F2961BE90BB96122D168F2166AA354E7DC
:1008C00056C9828CB1E550CF10BE2A10536FC2D5E5
:1008D0000D3927FFB5AC44557702C025D04105C47A
:1008E0000A0E108230225EF61AC66C6B231A402B59
:1008F0009CC43DA9DBDB1B24869B4FC4B66E0568F8
:10090000FDEF6EAE0DAEE6F49D3ED96202B6FEA5D9
:10091000C3B80A45F10E04824A5376482DAD983289
:10092000EBF4B362E7B2C4064911628C76FE4A2149
:10093000985883A4AA12AE4AF6FBC1C66BEEB14525
:10094000235BB0B0506D5BB71475DD42AB201398DC
:100950008E1AE99F24DC37175D2DC833B1752287C5
:10096000E2B2F97D05D8D6B970AD68E88C395D7012
:1009700071ECA86C734F9D69F80664288A2C15E405
:100980001A6E33DC62593F2B278DC0268B4B41B743
:10099000EC5B32DF84719D7AB46E4B187F3EB611EA
:1009A0008E081428B094E7E6C87DC5DEC9F92996FB
:1009B00002D1770C3C7D1344361C951CC541BACF3F
:1009C000F6BAB1DCB1B9BF93AF08C395D317D768F6
:1009D00077D06DCA9D12506D436877F6C0056D10D3
:1009E0002C066A93BC2FB0DA87CD98E1840D32844F
:1009F0006BF5AC50D1F8EAF0C71BF6B2CD09CB9637
:100A00001AA3DA1D6A9772BE8051BB2DEA17EE1F3A
:100A10003F0088A5E0EBA0F7908F62E91C2F00ACA7
:100A20007901D34FBCA0AB86732BA73B5AAA50D2F7
:100A3000F039A158E4C1DDB4F50E945982E812EF03
:100A4000B68524065282B215FA2596269F94BD14C7
:100A500062111D078E4155831910A858B06E3CC114
:100A60009176C48B2E0A88ED19F03B6899B98409F8
:100A70003BBD86BEB1035F8B36E0646C4312002938
:100A800074D997EE9BC33EE872E35A6CAAF48119BD
:100A9000B9258518FF38840CAD9F76752DB6926EFA
:100AA000C737C38794CF31A44E84B38B01096A152D
:100AB00078D15B01D75C9F4965C81C329F51D453E4
:100AC0003E54A66F30FB29766B8AA5D8FA7D915DDE
:100AD000B6CFEB1D2BFA3BAEF0E9310EAAE4BE7A9D
:100AE00002C61813B8E38CBE9BB0101E023820D586
:100AF000550131EC1996E563E14293BF3FF73BC2E4
:100B000026732EE6067DD3A5F808C111F2C923E6A7
:100B1000DF2DB6CEE63BEEB0E875D0C749FB669850
:100B2000739B61B0FBA92002306632582644F97AE3
:100B300083420729A6902D2A13EBD813991C0DC6C2
:100B4000F0C6770F1B4ED979B04C84D473F436803D
:100B5000B907B2ED74B29ACF213B9DB9C9821A2F61
:100B60009E2CE6647D982C164B184FBF7EA532BA9A
:100B700081E0A0F811D4B648713166302256991A36
:100B800034622B34C7A98E2A14FCB62371D50E57B4
:100B9000CB31B7C79E9C8F766DF5B6C6DF42472F27
:100BA0009D5816AFC03EBE333B68C599E3A9FE62AF
:100BB00015BDB11EEC9051DB2568C5DE069F7AA8F5
:100BC0008B0855DDD2BF91406EB44D3CDD8F9A7DD0
:100BD000FCE64045C53444B558EC25A1929AB96F5E
:100BE000096D77D8411A4EBF9884071603AEE5DF2A
:100BF0004B96ABF03C71C0785F4347B73B3E227EDB
:100C0000FD809B8E43BF9F3AE3872293E75629F3EB
:100C1000D0D247A4BEB767309C2329320DFA10C347
:100C2000CAC8AA247E02B0B77220EBB38C9E41F1F1
:100C30007D0598C151F16BD312BBB410DB5C577EBC
:100C4000FA94E4B041F9B34B4EA9906B3BAAAC9631
:100C5000632EEB4C308CE94BFB637E63034C43CB40
:100C600031E847F8C102CAC3E5C5C0470FAF7B12E0
:100C7000B83DC750B652081A27E4C7F68464BF8847
:100C8000FB8E80844CFA26E8E41B5704F215F5121B
:100C900054C2EDF56E4F480C1E30830061FFD20246
:100CA00085F9F3F87C323E1FFF3059CC7E803A5FE5
:100CB0006E97ABEC71F4F57FC2839BA6920900009E
:100CC00020002300260029000B4700440045008037
:100CD000010C48004400450020011D88008000816F
:100CE0000080001C8A008000810020001FB300B03B
:100CF00000B10080031EB400B000B10020030E98C4
:100D0000009000910080000F9A0090009100200058
:100D100004000000040404040704020704000002A5
:100D20000404020400000404070400020404040094
:100D30000404000404010704000402000000000091
:100D40000000060002025B1704100D5A0A02140D7F
:100D5000594002270D584003160D574003190D56F0
:100D60001C071C0D554002270D541404230D53403D
:100D700002270D521003290D5111042C0D5011049E
:100D8000300D4F0D02340D4E0B013B0D4D40013621
:100D90000D4C1204370D4B0B013B0D4A10023C0D5C
:100DA0004915033E0D004002410D480E02430D4718
:100DB0000901450D46060000000011241FBECFEFBB
:100DC000D0E4DEBFCDBF14BE0FB6F894A8958091D5
:100DD0006000886180936000109260000FBE11E097
:100DE000A0E0B1E0ECEAF4E600E00BBF02C007903F
:100DF0000D92AA32B107D9F722E0AAE2B1E001C010
:100E00001D92A439B207E1F70E9465220C94543276
:100E10000C940000CF93DF93CDB7DEB765970FB684
:100E2000F894DEBF0FBECDBF0E9452226B017C0141
:100E300080912601882309F4E0C30E945222C61A39
:100E4000D70AE80AF90AF89480912601882351F01C
:100E50008FEF8093260178940000F894809126010A
:100E60008111F9CF78940E945222A7019601260F92
:100E7000371F481F591F288B398B4A8B5B8B81E0AA
:100E80008093260180915301882309F440C0109279
:100E900053018FEF89838E010F5F1F4F60E274E271
:100EA000C8010E943D257C01892B89F1D701569606
:100EB0008C9182FFF3CF0E945222F894F701378978
:100EC0002689422F4B7F468B78949F938F937F93F5
:100ED0006F931F923F9321701F922F9389811F92CE
:100EE0008F9328E73DE03F932F930E94A0148DB786
:100EF0009EB70C960FB6F8949EBF0FBE8DBF60E2F2
:100F000074E2C8010E943D257C01892B79F680910D
:100F10005401882311F1109254018FEF89838E01BF
:100F20000F5F1F4F65ED72E1C8010E943D25FC0176
:100F3000892B99F0958D868D9813F4CFF894858D33
:100F4000968D891709F4ACC3789465ED72E1C801F8
:100F50000E943D25FC01892B69F780913701882388
:100F600009F454C0109237018FEF8B875FE0B52EE4
:100F700069E17EE0CE010B960E943D251C01892B84
:100F800009F444C0D10157968C91579780FFF0CF58
:100F9000F894F101448055806680778087898E7F40
:100FA000878B789456968C91813009F4D2C208F4DC
:100FB000AAC2823009F467C28330D1F6AB841986A5
:100FC0001A869E01275F3F4F42E061E0F10184896C
:100FD00095890E945B1389849A8498248924982493
:100FE000740100E010E0B101605F7F4FC12CA301EC
:100FF0009201C1010C960E947C0E82FEB9CF8091B5
:1010000027018111B5CF8CE10E94393180915801BF
:10101000882399F1109258018FEF8D8392E0D92E99
:101020002DE2E22E38E0F32E6EE47BE2CE0105964F
:101030000E943D258C01892B01F1D80152968C919B
:1010400082FFF2CF80FF14C0C8010E94862EF801F3
:10105000D28AE982FA829E012F5F3F4F42E060E030
:10106000848595850E945B13C8010E94C72CDCCF44
:101070006D81C8010E94E62CD7CF80914E01882354
:1010800001F110924E018FEF89838E010F5F1F4F88
:1010900064E47BE1C8010E943D25009791F0DC01EA
:1010A00058962C912F3FA1F7F894FC012685211129
:1010B00084C2789464E47BE1C8010E943D250097D6
:1010C00071F780914F01882309F43FC010924F01BE
:1010D0008FEF89838E010F5F1F4F64E87EE1C801A7
:1010E0000E943D25009789F1DC011E962C911E97E8
:1010F00023FFF3CFF894FC012685277F2687789479
:101100009C01265E3F4F3F932F9350968C9186957E
:10111000869586951F928F9389811F928F93E0E524
:10112000FDE0FF93EF930E94A0144DB75EB7485FB8
:101130005F4F0FB6F8945EBF0FBE4DBF64E87EE10F
:10114000C8010E943D25009779F6809150018823BF
:1011500009F44AC0109250018FEF89838E010F5F0E
:101160001F4F86E4E82E8DE0F82E62EE70E2C80193
:101170000E943D25FC01892BB9F1848D80FFF5CFBC
:10118000F8949481258136814781548965897689CF
:10119000A789B08DD18CC28CB38C848D8E7F848FC7
:1011A0007894BF92CF92DF92BF93AF937F936F9368
:1011B0005F934F933F932F939F9389811F928F93B8
:1011C000FF92EF920E94A0148DB79EB740960FB683
:1011D000F8949EBF0FBE8DBF62EE70E2C8010E9400
:1011E0003D25FC01892B49F6A89580917001882343
:1011F00029F080E480936000109270011091310218
:10120000112309F46DC000912A0100FD12C01530B0
:1012100008F466C0D0907101FD2C8BEF8D0D8C33DE
:1012200008F412C2EEE7FE1609F45CC201600093F6
:101230002A01412F50E06EE770E081E791E00E94C3
:101240002532009739F00E7F00932A018157914093
:1012500011E0180F01FD0CC0902F926090932A01AD
:101260008DE193E09F938F930E94A0140F900F90B5
:10127000D12ECC24CA9480E00D2D10E018C090E04F
:101280004E2D50E0481B590BB801680F791F6F585D
:101290007E4F8F589E4F0E943B32109226018E2D1A
:1012A0009FB7F89420913102F21661F09FBFF09041
:1012B0003102EF2CED1819F79FB7F8942091310205
:1012C000F212F4CFE09231029FBFF1E0CF1208C0DA
:1012D0008DE193E09F938F930E94A0140F900F9045
:1012E0000E9452226B017C01288939894A895B89D5
:1012F000621B730B840B950B80903301909034012B
:10130000A0903501B09036013FEF831A930AA30AEB
:10131000B30A8092330190923401A0923501B092C9
:10132000360140902F015090300160903101709053
:101330003201460E571E681E791E40922F015092B0
:10134000300160923101709232016115710541E006
:101350008407910508F056C19B01AC010E94AA3197
:10136000DC01CB0181509F4FAF4FBF4F892F9A2F88
:10137000AB2FBB2740912B0150912C0160912D0187
:1013800070912E01840F951FA61FB71F8417950714
:10139000A607B70718F48FEF9FEFDC0180932B01AE
:1013A00090932C01A0932D01B0932E0140914A01FE
:1013B00050914B0160914C0170914D015C546B4315
:1013C0007B4F2F2DC416D506E606270B27FD30CD03
:1013D000BF93AF939F938F937F926F925F924F9241
:1013E000BF92AF929F928F9280EA9DE09F938F93DE
:1013F0000E94A0148DB79EB70E960FB6F8949EBFAC
:101400000FBE8DBF80914A0190914B01A0914C017C
:10141000B0914D01C816D906EA06FB0698F48091F2
:10142000460190914701A0914801B0914901019670
:10143000A11DB11D8093460190934701A0934801DF
:10144000B0934901C0924A01D0924B01E0924C0105
:10145000F0924D0110922B0110922C0110922D014F
:1014600010922E0110922F01109230011092310132
:101470001092320110923301109234011092350112
:1014800010923601D5CCAB8481E089831A821B820D
:101490001C829E012F5F3F4F43E061E08489958964
:1014A0000E945B1369817A818B819C810E94BA3191
:1014B000272F382F492F55272C873D874E875F8749
:1014C00037E039831A829E012F5F3F4F42E061E08F
:1014D000D10154968D919C9155970E945B13EC8499
:1014E000FD840E851F8500271127B101605F7F4FA6
:1014F000CA80A3019201C1010C960E947C0EBC859A
:10150000B0FF36CD7CCDAB841D821E821F82188633
:101510009E012B5F3F4F44E061E0F1018489958992
:101520000E945B136D817E818F8198850E94BA3104
:10153000D62EF72EB101605F7F4FC12CED2C8C01B0
:10154000A3019201C1010C960E947C0ED2FE10CD27
:1015500056CDAB84FCE0F9831A821B821C829E016B
:101560002F5F3F4F44E061E0D10154968D919C91F3
:1015700055970E945B1369817A818B819C810E94BF
:10158000BA316B017C01B9821A829E012F5F3F4FF5
:1015900042E061E0F101848995890E945B13870133
:1015A00076011127B101605F7F4FCA80A3019201CC
:1015B000C1010C960E947C0EDBCC318D308F78946B
:1015C000AC01415F5F4F5F934F931F922F93FC01DC
:1015D00087891F928F9389811F928F9325E53DE024
:1015E0003F932F930E94A0148DB79EB70A960FB613
:1015F000F8949EBF0FBE8DBF4BCDC88AD98AEA8AA8
:10160000FB8A3DCC6115710550E18507910508F015
:10161000C2CE8B019C0101501F4F2F4F3F4F5527CA
:10162000432F322F212F0E94AA31DC01CB014091A0
:101630002B0150912C0160912D0170912E01840F8E
:10164000951FA61FB71FA2CEE09072018E2D807F3E
:10165000803109F0E7CD1D1508F442CE8D2D90E0C4
:10166000FC01E059FE4F20812E3709F0DBCDDC0173
:10167000A259BE4F1D01FC01E159FE4F90818C9192
:10168000292F30E05901B82A6DEF6D0D81E791E007
:101690000E946822A816B90639F1F0907101C2CDF6
:1016A0005489658990892189328943898F5F858F23
:1016B00078946F935F934F933F932F939F93898178
:1016C0001F928F93A3E7BDE0BF93AF930E94A01436
:1016D0002DB73EB7265F3F4F0FB6F8943EBF0FBE03
:1016E0002DBF20CC11E0C4CD802F8D7F80932A01A7
:1016F00080910101E812FEC081E08E0D8F70806143
:1017000080930101B3E72B16B1E03B0609F008F422
:10171000BAC0E3E7F1E0ADB6BEB68F010F5F1F4F71
:101720002081222309F4E3C0ECE1F3E0849128173F
:1017300008F0DDC030E0220F331F220F331F220FCD
:10174000331FF901E351FF4FE4914DB75EB784E0D9
:10175000E89F4019510911240FB6F8945EBF0FBEDF
:101760004DBF8DB79EB70196F901E151FF4F4491EE
:10177000F901E051FF4F65917491FB01640F711DF8
:10178000AC01BD86AC869D8B8C8B6E177F0709F4F0
:101790007FC02016310638F1A491A53038F1A7306A
:1017A00011F52801BFEF4B1A5B0AD8016C9082013A
:1017B000060D111D20163106B0F0862C912CA12C9F
:1017C000B12CDA018D929D92AD92BC921397612C4F
:1017D000712C14964D925D926D927C921797485F92
:1017E0005F4F3196D2CF87E00E9439317A0194E081
:1017F000E90EF11C5801AFEFAA1ABA0AD8011C91E0
:10180000912F9F77492E512C612C712C012F00763E
:10181000003691F117FF3AC085010F5F1F4FD801C5
:1018200011978C91440C551C661C771C440C551C5C
:10183000661C771C440C551C661C771C440C551CFC
:10184000661C771C440C551C661C771C440C551CEC
:10185000661C771C440C551C661C771C982F9F77C0
:10186000492A87FDDACFDA014D925D926D927C9222
:101870001397A701319689CFB0EE4B2A55245A947D
:10188000652C762CC7CFCC24C394F5CC8501EBCF47
:10189000AC84BD848C899D8940912701442331F01B
:1018A000F901E251FF4FE491E0FF11C02E503F4F8C
:1018B000F90125913491F90109950FB6F894BEBE4E
:1018C0000FBEADBE02151305F0F6F80124CF8091CE
:1018D00028011F928F93EFEAFDE0FF93EF930E94A0
:1018E000A0140FB6F894BEBE0FBEADBEEBCF85E020
:1018F0000E9439311D2DB4CC81E20E943931CF9341
:10190000DF93EC0165E87DE088810E9487254885AA
:1019100059856C81FC018081DF91CF910C947719FE
:101920002F923F924F925F926F927F928F929F92EF
:10193000AF92BF92CF92DF92EF92FF920F931F93DD
:10194000CF93DF9300D000D01F92CDB7DEB77C01DC
:101950002DB73EB73D832C8365E87DE0DC018C919B
:101960000E9487259B838A83F701F481F983D7013D
:1019700018966D907C9019971C968D919D910D9065
:10198000BC91A02D80FD6BC01C012D015694479485
:1019900037942794F701E088F188C22CD12CF98183
:1019A0000F2F10E0C8018C0D9D1D2DB73EB7281BD1
:1019B000390B0FB6F8943EBF0FBE2DBF8DB79EB743
:1019C00001965C01A801B3010E9432324501800EEC
:1019D000911E8401222DA3016981AA81BB818C9172
:1019E0000E94ED18C114D10499F0CE0CDF1CF40153
:1019F0009601D7018D917D01809590818923808307
:101A0000D9019D919D01892B8193CE14DF0489F723
:101A10006981620DA501EA81FB8180810E947719AD
:101A2000EC81FD810FB6F894FEBF0FBEEDBF0F90A5
:101A30000F900F900F900F90DF91CF911F910F910A
:101A4000FF90EF90DF90CF90BF90AF909F908F90DE
:101A50007F906F905F904F903F902F9008958FE10F
:101A60000E943931AF92BF92CF92DF92EF92FF92F4
:101A70000F931F93CF93DF93CDB7DEB77C01ADB645
:101A8000BEB6FC01C08065E87DE08C2D0E948725F4
:101A9000F701648140855185D4842DB73EB72D1957
:101AA00031090FB6F8943EBF0FBE2DBFEDB7FEB79C
:101AB00031967F018F012D2DFC0180810E94ED1850
:101AC000FF92EF921F92DF921F92CF9284E69DE0E9
:101AD0009F938F930E94A0142DB73EB7285F3F4F6E
:101AE0000FB6F8943EBF0FBE2DBF0FB6F894BEBE22
:101AF0000FBEADBEDF91CF911F910F91FF90EF9080
:101B0000DF90CF90BF90AF900895EF92FF921F9318
:101B1000CF93DF93EC018C85182F1F7741E050E0C5
:101B200065E87DE088810E9461257C018C819D8132
:101B3000AE81BF81892B8A2B8B2BF1F48091BC0065
:101B400082FD10C061E081E10E94002161E080E13E
:101B50000E9400211092B90088E48093B80084E0CC
:101B60008093BC00812F880FF7018083DF91CF9194
:101B70001F91FF90EF9008958FE20E943931FC0190
:101B80001092260181E08093370187898160878BDD
:101B9000448155816681778180859185A285B38551
:101BA000840F951FA61FB71F84839583A683B783D1
:101BB00081E008950F931F93CF93DF938C0169E128
:101BC0007EE0FC0180810E948725EC010E94862E28
:101BD000F80184819581A681B7818C839D83AE8332
:101BE000BF8380859185A285B38588879987AA87D9
:101BF000BB87892B8A2B8B2B29F4DF91CF911F91E7
:101C00000F91089584859585A685B7858C879D87D6
:101C1000AE87BF8780899189A289B389888B998B88
:101C2000AA8BBB8BCE01DF91CF911F910F910C94AA
:101C3000D82EFF920F931F93CF93DF93EC01F8847C
:101C400083E08F15E0F048E150E069E17EE08881B3
:101C50000E9461258C018FEB9DE0F80193838283C4
:101C600061E172E18C810E948725F801958B848B5C
:101C7000F68ADF91CF911F910F91FF9008958EE129
:101C80000E943931CF92DF92FF920F931F93CF932F
:101C9000DF93EC0161E172E18C810E9487256C0188
:101CA000F8840F2D10E0A8014D5F5F4F62E47EE0E5
:101CB00088810E946125FC01D182C082F2826C85FC
:101CC0007D85A8010396DF91CF911F910F91FF9021
:101CD000DF90CF900C943232CF93DF93EC0161E12F
:101CE00072E188810E948725288539854C8160E0D2
:101CF000DF91CF910C945B134F925F926F927F9222
:101D00008F929F92AF92CF92EF92FF920F931F9379
:101D1000CF93DF93EC014B01270138011F92CF9243
:101D20007F926F925F92EF925F934F933F932F93C7
:101D30001F92AF9289E69DE09F938F930E94A0141B
:101D40008DB79EB70E960FB6F8949EBF0FBE8DBF8F
:101D500088819981AA81BB81E816F9060A071B07C9
:101D600050F0F40180819181A281B3818E159F058D
:101D7000A007B10720F480912701882379F0DF9133
:101D8000CF911F910F91FF90EF90CF90AF909F90C8
:101D90008F907F906F905F904F9008958DE10E949B
:101DA00039318BE10E943931FC0192899460928B28
:101DB0001092260181E08093580180E008950F93EE
:101DC0001F93CF93DF93FC01A189B2898D919C91E0
:101DD0001197928B818B16968D919C911797C08548
:101DE000D185228521113FC02FB7F894AC0155272A
:101DF000598348832FBF20913801309139011196C2
:101E00003C932E93B0933901A0933801A189B289F4
:101E1000109759F5278530898217930741F08385FC
:101E20009485A585B6850097A105B10531F480E0BC
:101E3000DF91CF911F910F91089544815581668163
:101E40007781840F951FA61FB71F84839583A68370
:101E5000B7838CE79CE09383828381E0DF91CF910D
:101E60001F910F9108958883C6CF12964D915D9171
:101E70006D917C911597278530898217930741F0E2
:101E800083859485A585B6850097A105B10551F494
:101E9000448355836683778381E0DF91CF911F91DF
:101EA0000F9108950481158126813781800F911F3C
:101EB000A21FB31F2B2F84179507A607270B27FFF9
:101EC000E7CF80E20E943931FC014481558166816F
:101ED0007781208580810C940326EF92FF920F93E7
:101EE0001F93CF93DF937C0167EE7FE0DC018C9141
:101EF0000E9487258C010E946914EC01F7018481FE
:101F00009581A681B7818A839B83AC83BD838085BD
:101F100091859F838E83F89419821882D8015196F7
:101F20008D919C915297892BB9F15396ED91FC912B
:101F30005497D183C0835496DC93CE93539780E01B
:101F400090E07894892B39F4DF91CF911F910F9114
:101F5000FF90EF900895C8010E94862ED801129636
:101F60008D919C9113978C579C40F1F08A819B81B5
:101F7000AC81BD812FED3EE0F80133832283848361
:101F80009583A683B783C801DF91CF911F910F91ED
:101F9000FF90EF900C94D82EF801D48BC38BD28B8A
:101FA000C18B81E090E0CDCF8A819B81AC81BD81E6
:101FB000F8014481558166817781272F4817590799
:101FC0006A072B0B27FFD6CF80E20E943931CF92D0
:101FD000DF92EF92CF93DF93EC01488559856A85B4
:101FE0007B852C858C810E9403266B01E82E45E1C0
:101FF00050E067EE7FE088810E946125FC01C08689
:10200000D186E28688899989908B87878C899D897A
:10201000AE89BF8983879487A587B6878FED9EE0B9
:102020009383828368E070E0CF014196DF91CF9186
:10203000EF90DF90CF900C94E925DF92EF92FF9222
:102040000F931F93CF93DF93EC01D88883E08D1516
:10205000B0F161E172E188810E9487257C018AE00C
:1020600090E00E947D148C0161E08C810E94C21975
:10207000F80160837183828360E088850E9400217B
:10208000F80163837483858360E08C850E9400215E
:10209000F801668377838087D186F7018581982F41
:1020A000967081F4F7011183008382608583DF914C
:1020B000CF911F910F91FF90EF90DF9008958BE1EA
:1020C0000E9439310E94D10E0F931F93FC01A48905
:1020D000B58986898C9393A181E0892783A3448164
:1020E00055816681778180FF12C000851185228528
:1020F0003385400F511F621F731F82FD12C044833E
:1021000055836683778381E01F910F91089504853D
:10211000158526853785400F511F621F731F82FF6B
:10212000EECF0089118922893389872F4017510703
:102130006207830B87FDE3CF88EC90E19383828372
:10214000B901A801448355836683778381E01F9199
:102150000F9108950895FC018081A481B581408587
:102160005185628573859FB7F894813061F0823024
:1021700019F04C939FBF08954D935D936D937C939D
:1021800013979FBF089511965C934E939FBF089538
:102190008F929F92AF92BF92CF92DF92EF92FF9277
:1021A0001F93CF93DF93EC01EF8CF8A0E114F104BF
:1021B00009F4F0C0F7018081918198A38F8F868008
:1021C0009780A084B18411E081149104A104B1042A
:1021D00009F4A1C06C897D898E89412F0E94FB1969
:1021E0008091380190913901F70191838083F092B9
:1021F0003901E092380181149104A104B104E9F09D
:102200008B8D9C8DAD8DBE8D88169906AA06BB065A
:10221000A0F44F89588D698D7A8D4115510561055E
:10222000710509F45BC08C819D81AE81BF81480F2F
:10223000591F6A1F7B1F166022C08BA131E08114D9
:102240009104A104B10409F068C084FB992790F9B6
:1022500021E09227391709F443C04F89588D698DC1
:102260007A8D4115510561057105D1F18C819D81F2
:10227000AE81BF81480F591F6A1F7B1F1460EF8D0D
:10228000F8A1309709F077C02BA1488B598B6A8B46
:102290007B8B2071212B2BA311FF5FC0880D991D13
:1022A000AA1DBB1D12FD52C024E630E13B832A83E8
:1022B0008C839D83AE83BF8388869986AA86BB86DE
:1022C0008B8D9C8DAD8DBE8D88199909AA09BB098E
:1022D0008C879D87AE87BF8781E011C012608BA17C
:1022E000EF8DF8A13097D9F4188A198A1A8A1B8AB7
:1022F0008071812B8BA3812F827011FD34C0DF91FF
:10230000CF911F91FF90EF90DF90CF90BF90AF9053
:102310009F908F90089510E05DCF30E096CF42817E
:10232000538164817581488B598B6A8B7B8B80715B
:10233000912F9460892B8BA311FF0FC08C819D81FD
:10234000AE81BF81880D991DAA1DBB1D2B2F84173F
:102350009507A607270B27FDA7CF4C835D836E83C8
:102360007F8381E0CCCF40E050E0BA018C819D8139
:10237000AE81BF8193CFC280D380E480F580872F68
:102380004C155D056E058F0987FD07C08BA1B70150
:10239000A601C9CF85E10E94393183E10E9439311C
:1023A000FC0185818F9384818F9380811F928F930D
:1023B0008CE89DE09F938F930E94A0140F900F9044
:1023C0000F900F900F900F900895DC012C911496B0
:1023D000ED91FC9115973FB7F8942130E9F0223048
:1023E000B1F0808190E0A0E0B0E03FBFBF93AF9339
:1023F0009F938F9387E89DE09F938F930E94A014F3
:102400000F900F900F900F900F900F900895808174
:102410009181A281B381E9CF80819181A0E0B0E078
:10242000E4CF0F931F93CF93DF938C0146E050E0EE
:1024300061E172E1FC0180810E946125EC0161E0B3
:10244000F80184810E9400216A837B838C838D81C3
:1024500081608D83DF91CF911F910F91089546E0A8
:1024600050E061E172E1FC0180810C9461258F9262
:102470009F92AF92BF92FF920F931F93CF93DF93E0
:10248000EC0161E172E188810E9487258C01F8846A
:1024900083E08F1508F484C0F8018581867009F007
:1024A0007FC08C849D84AE84BF848C819D81AE81ED
:1024B000BF81892B8A2B8B2B09F074C0E2ECFCE0E6
:1024C000A591B49111968C9184FD04C060E08CE0DC
:1024D0000E94002160E08FE00E94002160E08DE01A
:1024E0000E94002160E08EE00E94C21980E58CBD50
:1024F0001DBC8114F2E19F06FAE7AF06B10408F0B3
:1025000041C0811489E098068DE3A806B10418F54E
:10251000E0E88E16E4E89E06EEE1AE06B104C0F5F2
:10252000F0E48F16F2E49F06FFE0AF06B10468F511
:1025300080E2881681EA980687E0A806B10458F57B
:1025400090E0E0E98E16E0ED9E06E3E0AE06B10411
:1025500028F583E002C090E080E0CF2DCC0FCC0FB7
:10256000C065C82BF801C083918385818460858311
:10257000DF91CF911F910F91FF90BF90AF909F90EF
:102580008F90089591E080E0E8CF90E081E0E5CF82
:1025900091E081E0E2CF91E082E0DFCF82E0DDCF29
:1025A0000E94D10E8CE20E943931CF93DF93DC017F
:1025B00014969C911497C0E0D0E0FE01EE5DFC4FB4
:1025C000E4919E1739F02196C830D105B1F78BE21E
:1025D0000E94393187E980937A0030917E0081E052
:1025E00090E00C2E01C0880F0A94EAF7832B8093A9
:1025F0007E004FE150E065ED72E18C910E94612513
:10260000FC0185E293E293838283C28F81E0858F10
:10261000DF91CF9108950F931F93CF93DF938C0198
:1026200065ED72E1FC0180810E948725EC010E942A
:10263000862E909100018A8D981303C08FEF8093AE
:102640000001F80184819581A681B781888B998BDF
:10265000AA8BBB8B8C839D83AE83BF838085918542
:10266000A285B3858C879D87AE87BF8784858E8F33
:1026700091E0980F9D8F40895189628973894887BD
:1026800059876A877B87248935893F8B2E8B208DDC
:10269000318D398F288F948D9C8F811105C0DF91EA
:1026A000CF911F910F910895CE01DF91CF911F918E
:1026B0000F910C94D82E8F929F92AF92BF92CF928F
:1026C000DF92EF92FF920F931F93CF93DF934C0112
:1026D000E62E142F6901DC0115968C911597982F21
:1026E000967009F462C081FD6DC0F4019081818112
:1026F0009CBD8DBDD40115969C91159790FD71C020
:1027000091FF7AC0D401CD91DC91AA24AA94A10EA4
:102710001123A9F1B12CBFEFAB1ABB0AAC0CBD1C45
:10272000F601F08008E010E0898580FF7AC0EE8134
:10273000FF81888580834F2D40786B817C818D81DE
:102740000E94FB19FF0CEE81FF8188858083110FA9
:10275000E881F98190818A81892391E009F490E0F0
:10276000192B015009F7EE2011F0D6011C93BFEF91
:10277000CB1ADB0ACA14DB0499F6F401958190FFA9
:1027800014C0D40112966D917D918C9141E0DF913E
:10279000CF911F910F91FF90EF90DF90CF90BF905E
:1027A000AF909F908F900C94FB19DF91CF911F9168
:1027B0000F91FF90EF90DF90CF90BF90AF909F90E0
:1027C0008F900895ED91FC914185427066817781EB
:1027D00080850E94FB19D40115969C91159790FF56
:1027E0008FCF12966D917D918C9140E00E94FB19E4
:1027F000F401958191FD86CFEE2071F18FEF810F6D
:10280000112309F4BCCFF60190819EBD0DB407FEE3
:10281000FDCF9EB591938150B8F7D40115969C9148
:10282000AECF4F2D40786B817C818D810E94FB194A
:10283000FF0CEE81FF8188858083110FE881F9818B
:1028400090818A81892391E009F490E0192BEE812F
:10285000FF818885808385CFF6019601210F311D88
:102860002E173F0709F489CF81918EBD0DB407FE65
:10287000FDCFF6CFFF920F931F93CF93DF93EC0121
:10288000188161E172E1812F0E9487250C81F88413
:10289000C9852F2D3C2F402F61E00E945B13CF9301
:1028A000FF921F920F931F921F938EE69DE09F93BE
:1028B0008F930E94A0148DB79EB708960FB6F89418
:1028C0009EBF0FBE8DBFDF91CF911F910F91FF90E3
:1028D00008952FB7F89480913801909139010097AD
:1028E00049F0FC01408151815093390140933801F6
:1028F0002FBF08958FE00E943931CF93DF93C091AD
:102900003B01D0913C01AE01480F591F2DB73EB796
:1029100021503F4F22273A952417350770F05093E6
:102920003C0140933B01AC0160E070E0CE010E94AD
:102930004D32CE01DF91CF91089581E10E9439316E
:102940002F923F925F926F927F928F929F92AF925F
:10295000BF92CF92DF92EF92FF920F931F93CF938C
:10296000DF93CDB7DEB728970FB6F894DEBF0FBE62
:10297000CDBF80913A018823C1F028960FB6F89414
:10298000DEBF0FBECDBFDF91CF911F910F91FF90A2
:10299000EF90DF90CF90BF90AF909F908F907F90FF
:1029A0006F905F903F902F90089581E080933A015F
:1029B0008E01025E1F4F20919302509092022515C6
:1029C000C0F4452D50E0CC8CDD8C3FEFC31AD30A08
:1029D000F60184913A01680E711CC301813691059C
:1029E00054F1821B91098136910560F010923A01F1
:1029F000C4CF109292021092930240E050E0512C0A
:102A000020E0E1CF1092920260919302561AE52CD9
:102A1000F12C70E06E5C7D4FA70182E392E00E9492
:102A20003B3210929302509292028091C1008062D8
:102A30008093C100A7019A012E5C3D4F7901F601F8
:102A4000A491A63008F42BC1AA2EB12CF3E0AF1A42
:102A5000B108A20EB31EEC8DFD8D32969491EC8DD3
:102A6000FD8D3396C590D4902D5F3F4F3E832D83CF
:102A7000EC8DFD8D8491D70112968C933601690EF1
:102A8000711C78866F826F807884C614D70409F42D
:102A900035C18D809E80A814B90448F0F601849158
:102AA000853009F4BFC008F441C0883018F086E0D2
:102AB0000E943931F80120813181F5016D807E80DD
:102AC000E619F709AF01FF0F660B770B49835A83AD
:102AD0006B837C83A901330F660B770B69807A8047
:102AE0008B809C80641675068606970608F4C8C01D
:102AF0006D807E802FEF621A720AAD81BE814C9389
:102B00001801B4E02B0E311CF801228133818A01B7
:102B1000B901863009F4B7C0C3010E9432324301C3
:102B2000800E911E9E828D828101A6C0823008F4A3
:102B3000AEC0833009F4D8C0F801408151813A0118
:102B4000812C912C0E5F1F4FD401C3018096A11DD3
:102B5000B11D80389105A105B10508F4C2C0A401DA
:102B60009301305F4F4F5F4F2115304441055105B0
:102B700008F43FC0D401C30118960097A042B105E4
:102B800040F1A40193015C5F2115310541055041DD
:102B900080F0D401C3015CE1B695A7959795879520
:102BA0005A95D1F78068AD81BE818C931196BE8312
:102BB000AD83D401C30145E1B695A7959795879557
:102BC0004A95D1F78068AD81BE818C931196BE8302
:102BD000AD83D401C3013EE0B695A795979587953F
:102BE0003A95D1F78068AD81BE818C931196BE83F2
:102BF000AD83ED81FE813196D401C30127E0B69506
:102C0000A795979587952A95D1F78068AD81BE8164
:102C10008C939F012F5F3F4F3E832D83462D4F772F
:102C200040832AC098012E5F3F4FF801A081B181F7
:102C30008D819E8101966C91662399F08A159B0582
:102C400080F4FD01319604C0A816B90609F447C006
:102C50000196AC0141505109DA016C936191611107
:102C6000F3CFAC016D807E80461957094150D301E6
:102C70004C939E838D8389012FEFC21AD20A03CF12
:102C8000B401A30135CFC3010E941C3248CFD80143
:102C90006D907D908D909C900C5F1F4F55CF1A2F9B
:102CA000D7011C938091010111968C936DEF610FF8
:102CB000C7010E946822E10EF11CF701339790834F
:102CC0003196808331968EE78083A52DA10FA09346
:102CD00092028091C10080628093C10087CEC501BD
:102CE000C0CFED81FE8195CFD8014D915C913A0125
:102CF000550F880899080E5F1F4F26CF0D811E8142
:102D00000E191F0913E0100FCBCF80914001909155
:102D100041019F938F9321E030912701311101C030
:102D200020E01F922F93209145012F932091440181
:102D30002F93209143012F93209142012F9321E063
:102D4000892B09F420E01F922F9381E99DE09F9346
:102D50008F930E94A0148DB79EB70C960FB6F8946F
:102D60009EBF0FBE8DBF0895CF92DF92EF92FF926C
:102D70000F931F930E9452229F938F937F936F9381
:102D800001E010E020E030E0C0904A01D0904B011B
:102D9000E0904C01F0904D016C157D058E059F056E
:102DA00018F000E010E098018091460190914701F1
:102DB000A0914801B0914901800F911FA21FB31F3C
:102DC000BF93AF939F938F938BE99DE09F938F93D6
:102DD0000E94A0148DB79EB70A960FB6F8949EBFB6
:102DE0000FBE8DBF1F910F91FF90EF90DF90CF909E
:102DF00008950E9452229F938F937F936F9386E949
:102E00009DE09F938F930E94A0140F900F900F90BE
:102E10000F900F900F9008950F931F93CF93DF9310
:102E20008C018091400190914101892B09F04BC0A8
:102E300060913F0170E0623071052CF482E0809374
:102E40003F0162E070E0E0913B01F0913C014DB741
:102E50005EB741505F4F44275A959F01C0E0D0E0D4
:102E6000C901860F971F4817590730F121969C0119
:102E7000C115A4E0DA07A1F78E1B9F0B0E947D14F9
:102E8000D0934101C093400190933E0180933D0156
:102E90000E949F25F80180819181A281B381809356
:102EA000420190934301A0934401B0934501DF9107
:102EB000CF911F910F910895209711F0C901DCCF98
:102EC00080E10E9439318DE00E9439318F929F92CA
:102ED000AF92BF92FF920F931F93CF93DF938C011A
:102EE00067EF77E1FC0180810E948725EC010E9459
:102EF000862E8F8D98A1892B09F058C0F801048186
:102F00001BA1FF24F394002339F16C897D898E89FC
:102F10004F2D0E94FB1921E001111CC014FB8827D2
:102F200080F991E08927281741F08F89988DA98D24
:102F3000BA8D892B8A2B8B2B89F410711F291BA327
:102F4000DF91CF911F910F91FF90BF90AF909F9015
:102F50008F90089520E0E2CFF12CD7CF0E9452222B
:102F60008F88988CA98CBA8CDC01CB01880D991DB7
:102F7000AA1DBB1D888B998BAA8BBB8B8C839D83D1
:102F8000AE83BF8388EC90E19B838A8310711460C9
:102F90001F291BA3CE01DF91CF911F910F91FF90AD
:102FA000BF90AF909F908F900C94D82E82E10E949A
:102FB0003931CF93DF93EC0167EF77E188810E948D
:102FC0008725F894FC01278D30A1232B69F44C81CF
:102FD0005D816E817F81FC01438F548F658F768F79
:102FE0007894DF91CF91089584E10E943931CF9296
:102FF000DF92EF92CF93DF93EC0161E088859985B2
:10300000AA85BB85892B8A2B8B2B09F460E08C81E8
:103010000E9400216B01E82E44E250E067EF77E167
:1030200088810E946125FC01C48AD58AE68A21E054
:10303000488559856A857B85452B462B472B09F4A6
:1030400020E04C855D856E857F85452B462B472B83
:10305000B1F430E0232BFC0123A3488959896A8904
:103060007B89478B508F618F728F6AE070E04F963B
:10307000DF91CF91EF90DF90CF900C94E92530E174
:10308000E9CFCF92DF92EF92FF920F931F93CF93EE
:10309000DF938C0167EF77E1DC018C910E9487253B
:1030A000EC010E946914FC01D8011496CD90DD90CA
:1030B000ED90FC901797C282D382E482F582189635
:1030C0004D915D916D917C911B97468357836087ED
:1030D0007187F894118210828F8D98A1892B81F0CD
:1030E000A9A1BAA1ED93FC93FAA3E9A37894DF9187
:1030F000CF911F910F91FF90EF90DF90CF900895A7
:10310000FAA3E9A3F8A3EF8F8BA182FD25C0C88A9B
:10311000D98AEA8AFB8A982F94609BA381FD10C00C
:10312000CE010E94862ECC82DD82EE82FF8288EC68
:1031300090E19B838A83CE010E94D82E7894D7CFCA
:103140004C815D816E817F81872F4C155D056E05F9
:103150008F0987FFE5CFF2CF488959896A897B8932
:10316000972F4C155D056E059F0997FFD0CF83E122
:103170000E943931CF92DF92EF92FF926B017C0176
:1031800009C00E945222292F6C157D058E052F093A
:1031900027FF09C08091BC0087FFF3CFFF90EF901D
:1031A000DF90CF9008958EE20E94393124EA209377
:1031B000BC000E94BA188091B90090E0A0E0B0E095
:1031C00080319105A105B10521F00897A105B10550
:1031D00009F408958DE20E9439317F928F929F9277
:1031E000AF92BF92CF92DF92EF92FF920F931F9315
:1031F000CF93DF93782EC62F942EB52E822E0E9469
:1032000052226B017C0120E8C20E28E3D21E21E08D
:10321000E21EF11CC701B6010E94D6187092BB00D5
:1032200084E88093BC00C701B6010E94BA18AA24A2
:10323000AA94AC0ECC23B1F0C92DDB2DB12C8FEFAD
:10324000A81AB80AAC0EBD1E94E8992E89918093F5
:10325000BB009092BC00C701B6010E94BA18AC1620
:10326000BD06A1F7C701B6010E94D618872D81605F
:103270008093BB0084E88093BC00C701B6010E9424
:10328000BA18DFEFD80D882009F15801CD2F84EC52
:10329000982ECC2369F09092BC00C701B6010E9421
:1032A000BA188091BB00F50181935F01C15099F775
:1032B000F801ED0FF11DEF0184E88093BC00C70118
:1032C000B6010E94BA188091BB00888384E980937C
:1032D000BC00DF91CF911F910F91FF90EF90DF9095
:1032E000CF90BF90AF909F908F907F900895BF92A6
:1032F000CF92DF92EF92FF920F931F93CF93DF93C2
:10330000D82FC62FB42E152F0E9452226B017C019C
:1033100020E8C20E28E3D21E21E0E21EF11CC70104
:10332000B6010E94D618D093BB0084E88093BC00FD
:10333000C701B6010E94BA180FEF0C0FCC23A9F0F9
:10334000CB2DD12F10E00F5F1F4F0C0F1D1F84E8F6
:10335000B82E89918093BB00B092BC00C701B60122
:103360000E94BA18C017D107A1F784E98093BC0066
:10337000DF91CF911F910F91FF90EF90DF90CF9051
:10338000BF9008958032A0F567FD32C0E82FE69522
:10339000E695E695F0E0EE0FFF1FE054F34FA591A0
:1033A000B491109729F1877021E030E0A90102C0A3
:1033B000440F551F8A95E2F7CA014FB7F894129649
:1033C0003C911297662381F0382B282F2095129676
:1033D0003C93129711963C911197232311962C93AD
:1033E00011974FBFBD010895282F20953223EFCFAD
:1033F00089E20E943931FB012FB7F8949281411183
:1034000005C08095892382832FBF0895892B8283ED
:103410002FBF089580912701882329F0823011F071
:1034200010922701089582E00E94393188E00E94BD
:103430003931CF92DF92EF92FF92FC0140815181AE
:10344000628173812481ECEBFCE085919591A591DB
:10345000B491481759076A077B0770F56A017B0129
:10346000C20ED11CE11CF11C8C159D05AE05BF05DB
:1034700000F5841B90E09A01265D3C4F3F932F930B
:103480009F938F937F936F935F934F9385EA9DE014
:103490009F938F930E94A0148DB79EB70A960FB684
:1034A000F8949EBF0FBE8DBFFF90EF90DF90CF903E
:1034B0000895822F90E0DFCF80E090E0DCCF8EE0B7
:1034C0000E943931CF93DF93EC016A8D662309F4B2
:1034D00053C0FC0150E031E020E0A38DB48D4C914D
:1034E000958D942309F0532B2F5F330F33962613BA
:1034F000F4CF2C85922F952729F08D8585278095EF
:103500009823D9F4888D5D8787FD03C0815070F1C1
:10351000888F4C815D816E817F8188859985AA85A0
:10352000BB85840F951FA61FB71F8C839D83AE8319
:10353000BF8381E0DF91CF910895982F9095292343
:103540008523822B8C879E859830E0F621E0290F19
:103550002E87FE01E90FF11D87871092260181E079
:1035600080934E018FEF888F5D87D3CF1092260115
:1035700091E090934E01CCCF50E0BBCFAF92BF9281
:10358000DF92EF92FF920F931F93CF93DF93FC0193
:10359000A485B585968547855089E1882289338938
:1035A000F488A588B6887789008D118DD28C8085A6
:1035B00086279C9384FD20C085FD22C086FD24C003
:1035C00087FD26C09C93862F8295807F8087682701
:1035D0009C9364FD2AC065FD25C066FD1CC067FD87
:1035E0001EC09C93DF91CF911F910F91FF90EF90A0
:1035F000DF90BF90AF900895EA01E88285FFDECFAB
:10360000E901F88286FFDCCFE501788387FFDACF16
:10361000E801D882D7CFF501708367FFE2CFE801D8
:10362000D882DFCFE901F882D8CFFA01E082D3CF88
:103630000F931F93CF93DF938C0164E47BE1DC0154
:103640008C910E948725FC01D80114969C91828D53
:103650009817B8F4292F30E0E901CC0FDD1F2C0FAB
:103660003D1FEF01C20FD31FF801648580850E94C2
:10367000C2196B8F7C8F8D8FDF91CF911F910F912E
:10368000089583E20E943931CF93FC01C481C9308F
:10369000B8F44C2F50E09A01220F331F420F531FF2
:1036A000455E5F4F64E47BE1FC0180810E946125FF
:1036B000FC01C28F22E63AE133832283CF91089541
:1036C00084E20E9439315F926F927F928F929F9233
:1036D000AF92BF92CF92DF92EF92FF920F931F9320
:1036E000CF93DF938C01FC01C080D180E280F38016
:1036F00084809580A680B78066246A94660E6623CF
:1037000001F1EA01712CFFEF6F1A7F0A640E751E3A
:1037100059900E945222DC01CB018C199D09AE09FF
:10372000BF0988159905AA05BB0598F3652DC80141
:103730000E94BE1A0E9452226B017C01C615D70559
:1037400039F7F801C082D182E282F382DF91CF9112
:103750001F910F91FF90EF90DF90CF90BF90AF90AF
:103760009F908F907F906F905F9008950F931F931D
:10377000CF93DF93EC016EEE7BE188810E94872579
:103780008C01FC0161857285838541E00E94FB19F3
:10379000488559856C81C801DF91CF911F910F91A8
:1037A0000C94631B0F931F93CF93DF93EC016EEE8A
:1037B0007BE188810E9487258C01FC0161857285EF
:1037C000838540E00E94FB19488559856C81C801BA
:1037D000DF91CF911F910F910C94631BCF92DF92D9
:1037E000EF92FF920F931F93CF93DF93EC014BE186
:1037F00050E06EEE7BE188810E9461258C0160E0E3
:103800008C810E940021F80161877287838760E0C4
:1038100088850E940021F80164877587868760E0AB
:103820008C850E940021F8016787708B818B60E096
:1038300088890E940021F801628B738B848B60E081
:103840008C890E940021F801658B768B878B60E064
:10385000888D0E940021F801608F718F828FF8940B
:103860000E9452226B017C0160E0C8010E94BE1AD6
:103870000E9452227894DC01CB018C199D09AE097B
:10388000BF09CC8CDD8CEE8CFF8C8C159D05AE05B4
:10389000BF0548F4C81AD90AEA0AFB0AF801C4822B
:1038A000D582E682F782DF91CF911F910F91FF9031
:1038B000EF90DF90CF9008954F925F926F927F923A
:1038C0008F929F92AF92BF92CF92DF92EF92FF9230
:1038D0000F931F93CF93DF938C01562E3A01FC0177
:1038E00080809180A280B380C480D580E680F780FC
:1038F000EA012196FA014080642D607F0E94F42B3A
:103900000E945222DC01CB0188199909AA09BB093E
:103910008C159D05AE05BF0598F3642D6295607FFB
:10392000C8010E94F42B0E9452226B017C01F80115
:1039300080849184A284B384F1E05F1639F15A94B3
:103940005A94852D90E00296680E791E5990652D47
:10395000607FC8010E94F42B0E945222DC01CB013F
:103960008C199D09AE09BF0988159905AA05BB05E3
:1039700098F3652D6295607FC8010E94F42B0E9428
:1039800052226B017C01C615D70501F7F801C082F0
:10399000D182E282F382DF91CF911F910F91FF904C
:1039A000EF90DF90CF90BF90AF909F908F907F90DF
:1039B0006F905F904F900895CF92DF92EF92FF92B9
:1039C000CF93DF93FC01A085B18582858C9396858A
:1039D00081E089278687C82FC170C688D788E08C88
:1039E000F18C97859F5FD1899D1708F05FC0892F63
:1039F000869586958695DF01A80FB11D5A962C9164
:103A000030E0892F877002C0359527958A95E2F7B7
:103A10002170B701A601C217A9F033C0892F86957E
:103A200086958695DF01A80FB11D5A962C9130E03E
:103A3000892F877002C0359527958A95E2F7217006
:103A4000C2131FC04C0D5D1D6E1D7F1D9F5F9D1716
:103A500028F387ED9FE19383828384819581A681FA
:103A6000B781480F591F6A1F7B1F448355836683A4
:103A7000778381E0DF91CF91FF90EF90DF90CF903F
:103A80000895978784819581A681B781480F591F32
:103A90006A1F7B1F448355836683778381E0DF91B0
:103AA000CF91FF90EF90DF90CF900895B701A601DE
:103AB000D0CFCF92DF92EF92FF920F931F93CF93CD
:103AC000DF93EC01E885F9858A8580830E94522284
:103AD0003E8521E023272E872F852F5F2F872130DA
:103AE00009F45CC02530E0F40C811D812E813F81FA
:103AF0004A895B896C897D89DB01CA01800F911F2E
:103B0000A21FB31F8C839D83AE83BF8381E0DF91AF
:103B1000CF911F910F91FF90EF90DF90CF9008957C
:103B2000CC80DD80EE80FF80AB01BC014C195D09CB
:103B30006E097F098E899F89A88DB98D481B590B05
:103B40006A0B7B0BDB01CA010296A11DB11DB7FDFB
:103B500034C0B595A79597958795B595A7959795F1
:103B600087950A891B892C893D89800F911FA21F87
:103B7000B31F8E8B9F8BA88FB98F2CED3CE13B83BD
:103B80002A834C0D5D1D6E1D7F1D840F951FA61F82
:103B9000B71F8C839D83AE83BF83B8CF0C811D81FB
:103BA0002E813F81AB01BC01401B510B620B730B9B
:103BB0004E8B5F8B688F798F9BCFDB01CA01059697
:103BC000A11DB11DC6CFEF92FF920F931F93CF930C
:103BD000DF937C0164E87EE1FC0180810E948725FF
:103BE000EC011E8511FF07C0DF91CF911F910F914E
:103BF000FF90EF900895F701048160857185F4844A
:103C00000B3008F045C0FAE0FF1508F441C0402F22
:103C100050E04A960E9432321F86117312601E874E
:103C2000802F880F880F880F898BFF0CFF0CFF0CEB
:103C3000F88A002349F08A8D8F738A3229F489E546
:103C40009DE19B838A830CC08A899B89AC89BD894D
:103C50008E8B9F8BA88FB98F8CED9CE19B838A8381
:103C6000F8940E945222DC01CB018058934FAF4F51
:103C7000BF4F8C839D83AE83BF83CE010E94D82E1D
:103C80007894DF91CF911F910F91FF90EF9008955D
:103C900085E20E9439310F931F93CF93DF938C01FC
:103CA00064E47BE1DC018C910E948725EC01D80162
:103CB0001496EC918F898E0F8F8BF8948E85E81770
:103CC000D0F48E1BF0E03F96EC0FFD1FDE011F9637
:103CD0002FEF280F30E0205F3F4F2C0F3D1F9191B9
:103CE0009D93A217B307D9F78E877894DF91CF9170
:103CF0001F910F9108951E868EEF888F7894DF9123
:103D0000CF911F910F9108957F928F929F92AF92C2
:103D1000BF92CF92DF92EF92FF920F931F93CF93B8
:103D2000DF93EC0144E250E064E87EE188810E9488
:103D300061258C0178848C809D80AE80BF80CC848E
:103D4000DD84EE84FF8461E0711001C060E0882DA5
:103D50000E94C219F80163877487858761E08C2D02
:103D60000E940021F801608771878287888999897C
:103D7000AA89BB89828B938BA48BB58B711018C0D9
:103D800091E08C149D04AE04BF04C1F080E0892B47
:103D9000F8018687DF91CF911F910F91FF90EF90EF
:103DA000DF90CF90BF90AF909F908F907F900895BD
:103DB00091E18C149D04AE04BF0441F780E2E7CF8B
:103DC0000F931F93CF93DF938C0164E47BE1FC019D
:103DD00080810E948725EC010E94862EF801848153
:103DE0009581A681B7818C839D83AE83BF834085F7
:103DF000518562857385488759876A877B87808963
:103E00008D878C871E861F8A8EEF888F8485898F89
:103E100087FD10C0452B462B472B29F4DF91CF910E
:103E20001F910F910895CE01DF91CF911F910F91B6
:103E30000C94D82E82E20E943931CF93DF93EC01AB
:103E40008E8585FD0DC0688579858A8541E00E9453
:103E5000FB198E85807381608E87DF91CF910895E5
:103E6000E885F9858A852FB7F8949281982B9283FB
:103E70009181892B81832FBF8E85807381608E878E
:103E8000DF91CF910895CF93DF93FC01A385B48593
:103E90005C918785982F977021E030E001C0220F58
:103EA0009A95EAF7982F969596959695DF01A90F22
:103EB000B11D5A969C915A9745854523E1F0292BCF
:103EC0005A962C938F5F90898917E8F487874481ED
:103ED00055816681778186899789A08DB18D840F00
:103EE000951FA61FB71F84839583A683B78381E0A0
:103EF000DF91CF910895209529235A962C938F5FB7
:103F00009089891718F3EF01CF010E941D1F8E853C
:103F100088608E871092260181E080934F0180E0B7
:103F2000DF91CF910895CF93DF93FC01A385B485F2
:103F30009C9185858923E9F08685846086878785BD
:103F400091E0980F9787803408F544815581668108
:103F5000778186899789A08DB18D840F951FA61FC3
:103F6000B71F84839583A683B78381E0DF91CF91C8
:103F70000895868582FFE3CF178683E49FE19383CC
:103F80008283CF01DF91CF910C94431FEF01108A00
:103F9000CF010E941D1F8E8588608E87109226019A
:103FA00081E080934F0180E0DF91CF9108950F93DE
:103FB0001F93CF93FC01C089CC23E9F1868585FD51
:103FC00023C0178683E99FE193838283868997893B
:103FD000A08DB18D880F991FAA1FBB1F880F991F35
:103FE000AA1FBB1F4481558166817781840F951F6D
:103FF000A61FB71F84839583A683B783C1E08C2F48
:10400000CF911F910F910895A385B48595852FB702
:10401000F89484FF21C012968C911297892B909569
:1040200012968C93129711968C9111979823119652
:104030009C932FBFC6CF8C010E941D1FF80186855F
:10404000886086871092260181E080934F018C2F33
:10405000CF911F910F91089512968C911297909580
:104060008923DECFB0990FC0809151019091520108
:104070000196109207011092060190930901809316
:10408000080181E0089581E086BB80915101909103
:1040900052010196909352018093510120E030E843
:1040A0003093070120930601909309018093080142
:1040B00081E00895CF93DF93FC0184819581A681EF
:1040C000B7814489558966897789C58DD68D3881B0
:1040D000C42FC170278D232331E009F430E0C317CA
:1040E00061F04F5F5F4F6F4F7F4F448B558B668BF7
:1040F000778B808F918FA28FB38F4089518962898E
:104100007389272F481759076A072B0B27FF18C0F9
:10411000248D2160248F4485558566857785840F9D
:10412000951FA61FB71F808B918BA28BB38B10920C
:10413000260181E08093500184819581A681B78119
:104140004085518562857385840F951FA61FB71F13
:1041500084839583A683B78381E0DF91CF9108950F
:104160000F931F93CF93DF938C0162EE70E2FC01FB
:1041700080810E948725EC010E94862EF8018481AF
:104180009581A681B7818C839D83AE83BF83408553
:10419000518562857385488759876A877B874485FF
:1041A0005585668577854C875D876E877F87888B89
:1041B000998BAA8BBB8BCE01DF91CF911F910F9171
:1041C0000C94D82E0F931F93CF93DF93EC0140E212
:1041D00050E062EE70E288810E9461258C01688562
:1041E0008C810E94C219F801658F768F878F8AE5CE
:1041F00090E293838283DF91CF911F910F91089575
:10420000803278F5E82FE695E695E695F0E0EE0F3A
:10421000FF1FE054F34FA591B491109711F18770EF
:1042200021E030E0A90102C0440F551F8A95E2F752
:10423000CA013FB7F89412962C91129761110FC0E2
:104240004095242312962C93129711962C91119736
:10425000282B11962C9311973FBFBD010895242B55
:10426000F1CF8AE20E9439311F920F920FB60F925E
:1042700011240BB60F92EF92FF920F931F932F937F
:104280003F934F935F936F937F938F939F93AF93DE
:10429000BF93CF93DF93EF93FF930DC07A0180918B
:1042A0008400909185008E199F0997FD7CC07894B9
:1042B000B2999AC0F894C0912201D0912301EA8169
:1042C000FB81309709F0ADC0EA8DFB8D2C8D2083EA
:1042D0008E859F85019709F4C1C09F878E87888549
:1042E0009985AA85BB854C815D816E817F81480F50
:1042F000591F6A1F7B1F4C835D836E837F832083DE
:104300002CA525FF0EC00C851D85012E000C220B4F
:10431000330B800F911FA21FB31F88879987AA872D
:10432000BB87E881F9810481158126813781872F38
:10433000401751076207830B87FDB0CF7801F093D8
:104340002301E0932201A0912401B091250114964C
:104350000D911D912D913C911797872F4017510773
:104360006207830B87FFFD01DF010190F081E02DE3
:104370000481158126813781872F401751076207F5
:10438000830B87FFF1CFF983E883CD93DC93D09340
:104390002501C093240180918400909185008E199D
:1043A0009F0997FF84CF863A9F4F0CF06AC0F09226
:1043B0008900E0928800FF91EF91DF91CF91BF914A
:1043C000AF919F918F917F916F915F914F913F91AD
:1043D0002F911F910F91FF90EF900F900BBE0F90B8
:1043E0000FBE0F901F901895F894809184009091C3
:1043F00085009701281B390B2038314CDCF12091C6
:10440000260127FF43C09C01205C304E30938B0077
:1044100020938A0024E026BB909389008093880033
:104420003ECFCE0109954C815D816E817F818111E6
:1044300078CFE881F981E480F580F0932301E0935F
:1044400022018091240190912501C817D90709F014
:1044500026CFF0932501E093240121CFCE010E94C5
:104460008F29EA8DFB8D9C8D90834C815D816E81BF
:104470007F81DDCF209127012111C1CF88E20E94E9
:1044800039317894B299B0CFF89409CF9C0128546F
:10449000344F30938B0020938A0024E026BB7C01AC
:1044A000F39485CF2FB7F8946091840070918500C4
:1044B0008091510190915201B09902C02FBF08958F
:1044C0002FBF7F3FE1F30196089578940E94562F05
:1044D0002FEF260F6623C1F0FC018FEF9FEF319184
:1044E0008327082E8295807F8025092E982F82951C
:1044F0008F700826869598278927880F880F880F40
:104500008025215060F708958FEF9FEF08951F9346
:10451000CF93DF93EC01162FAC89BD891097B9F0CA
:104520001296ED91FC9113978D919C9111979D8B13
:104530008C8B11961C921E9213961C921E921297AF
:10454000612FCD010995AC89BD89109749F710926B
:10455000260181E080935301DF91CF911F9108954F
:10456000FC013897968990FF08C0608D678B9A7F11
:104570009460968BCF010E94872280E00895FC0111
:1045800086898460868B1092260181E08093530196
:10459000448155816681778180899189A289B38917
:1045A000840F951FA61FB71F84839583A683B783A7
:1045B00081E00895FC01A085B1859C9182858923C5
:1045C000D1F0818D80958170C9F4838D815031F156
:1045D000838F448155816681778187859089A18900
:1045E000B289840F951FA61FB71F84839583A68366
:1045F000B78381E00895818D817039F380ED96E273
:104600009383828383899489A589B68984839583DA
:10461000A683B783828D838F81E00895A789B08DAB
:1046200056969C915697892F817090FFE3CF648DA9
:1046300057966C9357979A7F946056969C9356978B
:10464000CD010E94872280E00895FC0180917A00CC
:1046500086FF0EC084819581A681B7818853984FCB
:10466000AF4FBF4F84839583A683B78381E00895BE
:10467000828D90910001981761F09F3F59F78093C8
:1046800000018770806480937C0087ED80937A00BE
:10469000E1CF8FEF80930001209178003091790075
:1046A000858D968D891780F544895589240F351F8E
:1046B0008F5F358B248B858F891760F18689978969
:1046C00028173907C8F1808D918D82179307A0F1C3
:1046D000138E1092260181E0809354014089518904
:1046E0006289738980859185A285B385840F951F22
:1046F000A61FB71F808B918BA28BB38B848395836E
:10470000A683B78381E0089581E0358B248B858F64
:104710008917A0F6448155816681778184859585C6
:10472000A685B785840F951FA61FB71F8483958321
:10473000A683B78381E00895838D8F5F838F948DE7
:10474000891738F2809127018111C2CF8AE10E9436
:104750003931EF92FF921F93CF93DF937C01FC01DD
:10476000108160E274E2812F0E948725EC01F894A9
:104770008E8980FF09C0F70164816F8B8A7F846016
:104780008E8BCE010E948722CE010E94862ECE0102
:1047900008960E94862E1E8A8F8978941F921F92F7
:1047A0001F921F921F928F931F921F921F921F930F
:1047B00088E79DE09F938F930E94A0148DB79EB7CA
:1047C0000C960FB6F8949EBF0FBE8DBFDF91CF91B0
:1047D0001F91FF90EF900895CF93FC01C08166EB8D
:1047E00074E28C2F0E948725FC01F894818D338917
:1047F0004489558966897894A085B1852C919285E4
:10480000922321E009F420E01F922F936F935F938E
:104810004F933F93869581701F928F931F92CF93F2
:104820008DE79DE09F938F930E94A0148DB79EB754
:104830000C960FB6F8949EBF0FBE8DBFCF91089512
:1048400049E150E060E274E2FC0180810E94612550
:104850002FEB32E2FC013383228320EB32E23387F9
:1048600022870895EF92FF920F931F93CF93DF93C8
:104870008C0160E274E2FC0180810E948725EC01DA
:10488000F8948E8980FF13C07E01F8E0EF0EF11CD2
:10489000C7010E94862EF80184819581A681B78187
:1048A0008C879D87AE87BF87C7010E94D82E7894DA
:1048B000DF91CF911F910F91FF90EF9008950F938B
:1048C0001F93CF93DF938C0166EB74E2FC01808130
:1048D0000E948725EC010E94862EF8018481958133
:1048E000A681B7818C839D83AE83BF8380859185AC
:1048F000A285B3858F87988BA98BBA8B84858A8F85
:10490000882361F1F80140895189628973894B8755
:104910005C876D877E8720ED36E23B832A838B8F11
:1049200084899589A689B789892B8A2B8B2BA1F439
:1049300082E0898F60E274E2F801808D0E94872511
:10494000988F8F8BF801848D8C8FCE01DF91CF9162
:104950001F910F910C94D82E83E0EBCF188E1F8AF5
:10496000198EDF91CF911F910F9108950F931F938F
:10497000CF93DF93EC014DE150E066EB74E2888168
:104980000E9461258C0168858C810E94C219F80102
:10499000608771878287DF91CF911F910F91089572
:1049A000CF93DF93EC010E94862ECE0108960E94E1
:1049B000862EEC89FD89309751F090818181138298
:1049C000128211821082E92FF82F3097B1F71D8AD9
:1049D0001C8A188E1F8A1E8ADF91CF9108950F932B
:1049E0001F93CF93DF938C0160E274E2FC0180811E
:1049F0000E948725EC01F8940E94D02481E08E8BE0
:104A0000F80184819581A681B7818C839D83AE83D3
:104A1000BF8380859185A285B385888B998BAA8B6E
:104A2000BB8B892B8A2B8B2B19F0CE010E94D82EA1
:104A3000F8018485888F7894DF91CF911F910F9131
:104A40000895CF932091560130915701232B91F473
:104A5000FC01C0818C2F90E0880F991F880F991F4F
:104A60000E947D149093570180935601C093550185
:104A7000CF9108958AE00E943931CF93DF93EC0102
:104A8000988140915501A0915601B09157010BC0FA
:104A9000FD0184E0989FE00DF11D112420813181FA
:104AA0002617370741F09F5F941790F380E090E05E
:104AB000DF91CF910895988382819381DF91CF9187
:104AC0000895CF93DF93909155018917E8F4C09131
:104AD0005601D091570194E0899FC00DD11D11243A
:104AE00088819981892B81F48091400190914101C5
:104AF000892B51F479836883CA010E947D149B83BA
:104B00008A83DF91CF9108958BE00E943931909193
:104B10005501891788F4E0915601F091570194E00E
:104B2000899FE00DF11D11248081918186179707DF
:104B300019F48281938108958CE00E943931CF92DB
:104B4000DF92EF92FF92CF93DF93C0914001D0911B
:104B500041012097B9F121976E01E12CF12CA09130
:104B60003F01B0E02097D9F020E030E040E050E095
:104B7000BA0180913D0190913E01FC01E20FF31FCB
:104B80004F5F5F4F6F4F7F4F2A0F3B1F820F931F67
:104B9000918380834C155D056E057F0550F38091F0
:104BA0003D0190913E01CA9FF001CB9FF00DDA9F2D
:104BB000F00D1124E80FF91F118210829093390132
:104BC00080933801DF91CF91FF90EF90DF90CF90ED
:104BD0000895FC0113821282118210826F3F7105C9
:104BE00009F07CF48091400190914101892B49F4B6
:104BF00080913F0190E08617970714F460933F017E
:104C000008950E945F1ACF92DF92EF92FF921F9356
:104C1000CF93DF936A017B0168EC7CE0FB01949108
:104C2000981749F0675F7F4FFDE060317F07B1F76C
:104C300082E30E943931FB013896949191FF19C0AB
:104C400030EAC3163FE5D306E104F10408F081C061
:104C5000A8EDCA16A7E2DA06E104F10408F08AC05A
:104C6000B7EFCB16B8E0DB06E104F10488F012E000
:104C700010C0F8EBCF16F7E4DF06E104F10408F00A
:104C800057C037EFC31638E0D306E104F10478F7D4
:104C900011E0FB013396A591B491FB013596C591C6
:104CA000D491FB0137963491E82FE695E695E69589
:104CB000F0E0EE0FFF1FE054F34F459154918770E1
:104CC000E1E0F0E07F0101C0EE0C8A95EAF7FB011C
:104CD0003196C590D490892F8170A038B10509F420
:104CE0005CC0EFB7F8949881977011F0191352C017
:104CF000188381114AC09FB7F894622F70E0E601D3
:104D0000798368839FBF9C913160392B3C93DA0192
:104D100011969C911197E92A1196EC92EFBFB6017A
:104D2000DF91CF911F91FF90EF90DF90CF9008958A
:104D3000A0ECCA16AEE3DA06A1E0EA06F104D0F070
:104D4000C114BBEFDB06B4E0EB06F10488F414E019
:104D5000A0CFC0E8CC16CEE7DC06C1E0EC06F1043B
:104D600058F4D0E4CD16DFEBDD06E104F10478F36E
:104D700015E08FCF13E08DCFC114EBEFDE06E4E03A
:104D8000EE06F10428F416E084CFE6012883BBCFB9
:104D900017E07FCF80E30E94393181E30E943931EF
:104DA0000F931F93FC01A085B1859C91048115810F
:104DB000268137814385548565857685400F511F4F
:104DC000621F731F8285892361F0818D80958170B8
:104DD00059F0448355836683778381E01F910F9157
:104DE0000895818D8170A9F7438B548B658B768BE9
:104DF0008AED92E293838283CF011F910F910C94ED
:104E0000DA22CF93DF93EC0169E379E288810E9493
:104E10008725FC018C819D81AE81BF81892B8A2BE6
:104E20008B2B51F420E0F89494A59D7F922B94A7AE
:104E30007894DF91CF91089522E0F5CF0F931F93DF
:104E4000CF93DF938C01EC01A897CE010E94862EB0
:104E50001C821D821E821F821A8A1B8A1C8A1D8A3E
:104E600088A199A1AAA1BBA12CA54E855F856889BF
:104E7000798924FD04C07695679557954795841BDD
:104E8000950BA60BB70BB7FD40C0B095A0959095BC
:104E900081959F4FAF4FBF4F88A399A3AAA3BBA3F0
:104EA0001E861F86188A198A247128602CA76D8D8A
:104EB0007E8D8F8D40E00E94FB194CA544706A8D59
:104EC0007B8D8C8D0E94FB19D8011497ED91FC917C
:104ED00011973097A9F0409138019091390101C0A4
:104EE000F9012081318140839183F0933901E0936E
:104EF00038014E2F9F2F2115310591F71D921C92DD
:104F0000DF91CF911F910F910895B095A095909545
:104F100081959F4FAF4FBF4FB8CF0F931F93CF9344
:104F2000DF938C0169E379E2FC0180810E9487258F
:104F3000EC0160E274E2F80184810E948725BE01E1
:104F4000685D7F4F4FB7F8942AA53BA5232B89F4C2
:104F50002EE137E23BA72AA7FC012489358939A72E
:104F600028A7758B648B4FBFDF91CF911F910F9155
:104F7000089589E10E943931CF93DF93EC0169E311
:104F800079E288810E948725FC018C819D81AE8118
:104F9000BF81F8944685578560897189452B462BDA
:104FA000472B79F484839583A683B783828B938B75
:104FB000A48BB58B84A5877F84A77894DF91CF914C
:104FC000089586E10E943931CF93FC01C08169E3E5
:104FD00079E28C2F0E948725FC01F89480A191A191
:104FE000A2A1B3A124A5468557856089718924FDB6
:104FF00004C07695679557954795841B950BA60B2E
:10500000B70BB7FF07C0B095A095909581959F4FBE
:10501000AF4FBF4F7894B054BF93AF939F938F938C
:105020001F92CF9382E89DE09F938F930E94A014DC
:105030008DB79EB708960FB6F8949EBF0FBE8DBF72
:10504000CF9108954F925F926F927F92BF92CF92CD
:10505000DF92EF92FF920F931F93CF93DF93FC01A8
:10506000B08067EF78E28B2D0E948725EC014D80A0
:105070005E806F807884C984DA84EB84FC840E942B
:105080005222DC01CB0184199509A609B7098C15B8
:105090009D05AE05BF0568F40E945222DC01CB01DC
:1050A00084199509A609B7098C159D05AE05BF059C
:1050B00098F3CD84DE84688179818A81A09184000F
:1050C000B09185000B811C819E01215F3F4F7901CA
:1050D000C20ED31ECE14DF0409F457C0F70191911C
:1050E0007F0128E013C0F89440918400509185001E
:1050F000FB01808380837894FA01EA1BFB0BE017A5
:10510000F107D8F4990FDA01215021F397FFEBCF83
:10511000F8944091840050918500FB01808378943D
:10512000FA01EA1BFB0BE017F10738F4990FF8942A
:10513000FB0180837894DA01E7CF40E00E94FB19FD
:105140000E9452226D837E838F83988780E01F9216
:105150008F931F92BF928BE49DE09F938F930E9449
:10516000A0140F900F900F900F900F900F90DF9161
:10517000CF911F910F91FF90EF90DF90CF90BF9054
:105180007F906F905F904F9008950E9452226D83A0
:105190007E838F83988781E0DACF0F931F93CF931D
:1051A000DF93EC0167EF78E288810E9487250C810C
:1051B0001D812E813F8148856C857D8517FD14C03A
:1051C00050E0DA01A00FB11FEC01ED85FE85EA1772
:1051D000FB0750F0015F1F4F800F911FDF91CF91B0
:1051E0001F910F910C94323286E20E9439316F92F6
:1051F0007F928F92CF92DF92EF92FF92CF93DF93C5
:10520000EC0160E08C810E9400213B01882EC88463
:10521000D984EA84FB84D7FC24C0A601415F5F4F98
:1052200067EF78E288810E946125FC0160827182CB
:105230008282D686C5868C859D8594838383888962
:105240009989AA89BB8981879287A387B487DF91CF
:10525000CF91FF90EF90DF90CF908F907F906F90E5
:10526000089587E20E943931FC01648180810C94A9
:1052700000210F931F93CF93DF938C014DE250E0F9
:1052800069E379E2FC0180810E946125EC01F8016B
:10529000848518160CF041C064E06CA7F801848185
:1052A0000E9400216A8F7B8F8C8F60E0F8018085DF
:1052B0000E9400216D8F7E8F8F8F80E090E0A0E0B4
:1052C000B0EC88A399A3AAA3BBA3F8018089918914
:1052D000A289B3898E8B9F8BA88FB98F6BE070E00A
:1052E000CE0184960E94E9258E899F89A88DB98D6B
:1052F0008997A105B10548F08CEC9AE29B838A83DB
:10530000DF91CF911F910F9108958CA580618CA79B
:10531000DF91CF911F910F91089560E0BECFCF92A2
:10532000DF92EF92FF92CF93DF93FC01A4A1B5A18E
:10533000109761F416861786108A118A80E0DF9133
:10534000CF91FF90EF90DF90CF9008958D919C9139
:10535000119795A384A316968D919C911797958785
:1053600084871296CD90DD90ED90FC901597AC015E
:10537000092E000C660B770B4C0D5D1D6E1D7F1DFD
:10538000408751876287738724A524FD43C04289E3
:10539000538964897589C40ED51EE61EF71EC28A1C
:1053A000D38AE48AF58AC482D582E682F782189687
:1053B0008D919C911997AC0160E070E0440F551FEE
:1053C000661F771F46875787608B718B1A962C91C3
:1053D0001A9720FD3FC040A151A162A173A1480FBF
:1053E000591F611D711D40A351A362A373A3809136
:1053F00038019091390111969C938E93B0933901A5
:10540000A093380181E0DF91CF91FF90EF90DF9082
:10541000CF9008954481558166817781C40ED51E51
:10542000E61EF71EC482D582E682F782892B31F10F
:10543000206224A718968D919C911997AC0160E089
:1054400070E046875787608B718B1A962C911A975C
:1054500020FFC1CFAC0160E070E0C0A0D1A0E2A00D
:10546000F3A04C195D096E097F0940A351A362A303
:1054700073A3C58DD68D878D8883B9CF2F7DD9CF66
:105480000F931F93CF93DF938C0169E379E2DC01E3
:105490008C910E948725EC010E946914FC01D801BF
:1054A00014964D915D916D917C9117974283538332
:1054B0006483758318968D919C9119979187808745
:1054C000892B09F466C0D8011C968D919C911D977B
:1054D000978386831286F8948CA5282F217081FBF0
:1054E000992790F9291729F091E0892792859160F1
:1054F00092874E855F8568897989452B462B472B96
:1055000059F583FD19C08CA7118210828CA19DA131
:10551000892BA9F1AEA1BFA1ED93FC93FFA3EEA34C
:10552000CE010E948F29CE010E94D82E7894DF915F
:10553000CF911F910F910895809138019091390179
:1055400091838083F0933901E09338017894DF915F
:10555000CF911F910F9108958CA7118210828CA179
:105560009DA1892B89F0AEA1BFA1ED93FC93FFA370
:10557000EEA37894DF91CF911F910F910895FFA32F
:10558000EEA3FDA3ECA3CCCFFFA3EEA3FDA3ECA35E
:10559000CDCF87E10E943931CF92DF92EF92FF9217
:1055A0000F931F93CF93DF93EC01EA8DFB8D8C8DCE
:1055B00080830E9452220E891F89288D398D6B01AC
:1055C0007C01C00ED11EE21EF31E8E859F85A88928
:1055D000B9890197A109B1098E879F87A88BB98BDB
:1055E00080FF0EC0CC82DD82EE82FF8281E0DF91FF
:1055F000CF911F910F91FF90EF90DF90CF90089582
:10560000892B8A2B8B2B59F1488559856A857B8597
:105610008A899B89AC89BD89840F951FA61FB71FF6
:105620008A8B9B8BAC8BBD8B0C851D85012E000C52
:10563000220B330B400F511F621F731F488759877E
:105640006A877B872B2F8C159D05AE052F0927FDBB
:10565000C9CF8C839D83AE83BF8381E0C8CFCE0149
:105660000E948F29811102C080E0C1CF4C815D81F1
:105670006E817F81972F4C155D056E059F0997FF01
:10568000B6CF4C195D096E097F094038514C6F4FF8
:105690007F4F0CF0A7CF88E10E9439310F931F9301
:1056A000CF93DF938C0146E450E06EE47BE2FC0193
:1056B00080810E946125EC0184ED9EE09B838A83BA
:1056C00061E172E1F80184810E9487259D878C87C2
:1056D000DF91CF911F910F9108958F929F92AF927A
:1056E000BF92EF92FF920F931F93CF93DF9300D05F
:1056F000CDB7DEB77C016EE47BE2FC0180810E94C5
:1057000087258C0189EB89831A820E9452224B01E2
:105710005C019E012F5F3F4F42E061E0F80184850C
:1057200095850E945B130E945222F80121892F93D4
:1057300020892F932A811F922F9323891F922F93C1
:1057400027852F9326852F93DC01CB018819990992
:10575000AA09BB09BF93AF939F938F93BF92AF9258
:105760009F928F92F70180811F928F938FE59DE02A
:105770009F938F930E94A0140FB6F894DEBF0FBEC4
:10578000CDBF0F900F90DF91CF911F910F91FF90A0
:10579000EF90BF90AF909F908F900895CF93DF933D
:1057A000EC0144969F938F938B891F928F938F85E3
:1057B0008F938E858F931F926F938AE59DE09F93C1
:1057C0008F930E94A0141B8A8E859F8501969F87C8
:1057D0008E878DB79EB70A960FB6F8949EBF0FBE00
:1057E0008DBFDF91CF910895CF93DF93DC011C969D
:1057F000ED91FC911D971E969C911E971F96CD9141
:10580000DC91509751962C9188E005C09083660FEB
:105810009083815049F067FFF9CF2883609590838A
:10582000660F90838150B9F7DF91CF9108950F9360
:105830001F93CF93DF93EC0166E37CE288810E94A3
:1058400087258C016AEF0E94F42B6C81611105C0E1
:10585000DF91CF911F910F91089548855985C80117
:10586000DF91CF911F910F910C945C1CCF92DF922E
:10587000EF92FF920F931F93CF93DF938C0142E13E
:1058800050E066E37CE2FC0180810E946125EC012E
:1058900060E0F80180850E9400216C877D878E87FB
:1058A00060E0F80184850E9400216F87788B898BE6
:1058B00061E0F80184810E94002168EFCE010E941E
:1058C000F42B60E2CE010E94F42BF8940E94522245
:1058D0006B017C0160E0CE010E94F42B0E945222F9
:1058E0007894688379838A839B83DC01CB018C194C
:1058F0009D09AE09BF09F801C088D188E288F38804
:105900008C159D05AE05BF0540F4C81AD90AEA0AF0
:10591000FB0ACC82DD82EE82FF82F80104891589C0
:105920002689378980179107A207B30740F4081B1F
:10593000190B2A0B3B0B088719872A873B87DF91B6
:10594000CF911F910F91FF90EF90DF90CF9008952E
:105950000F931F93CF93DF93EC0166E37CE2888182
:105960000E9487258C0168EF0E94F42B6C816111E5
:1059700005C0DF91CF911F910F91089548855985FA
:10598000C801DF91CF911F910F910C945C1C0F9374
:105990001F93CF93DF93EC01F8940E945222088565
:1059A00019852A853B85DC01CB01800F911FA21F41
:1059B000B31F8C839D83AE83BF83CE010E94D82EFC
:1059C0007894DF91CF911F910F910895DF92EF921C
:1059D000FF920F931F93CF93DF93CDB7DEB7299735
:1059E0000FB6F894DEBF0FBECDBF8C01F62E9E0120
:1059F0002F5F3F4F89E0F90111928A95E9F782EF15
:105A0000898349E061E0F801848595850E945B13F4
:105A1000F801838990E09C012C5E3F4FE20FF31F59
:105A20003B81232F207F21F1203F11F12FEF248391
:105A3000238322832183F801E80FF91F248BF801C7
:105A400083898B5F838B8E3208F05EC0F801828978
:105A500081FD4FC029960FB6F894DEBF0FBECDBFB3
:105A6000DF91CF911F910F91FF90EF90DF900895FC
:105A70004D81242F207FC9F52F81522F507F11F0A7
:105A8000503FA1F65885503989F659855F77E52E44
:105A900050E25E1558F2D801A80FB91F5A815496EA
:105AA0005C938C8181838E818283822F90E03F7111
:105AB000BC01660F771F62957295707F7627607FB5
:105AC0007627362B3383880F991F880F991F80768E
:105AD0004F71482B4483F80183898B5F838B4EEF92
